S01A0000426F6F744F6E6C79426F6F744C6F616465722E73726563E9
S3150800000000800120D5180008511800085918000862
S315080000106118000869180008711800080000000037
S315080000200000000000000000000000007918000829
S31508000030871800080000000095180008A318000893
S31508000040251900082519000825190008251900088A
S31508000050251900082519000825190008251900087A
S31508000060251900082519000825190008251900086A
S31508000070251900082519000825190008251900085A
S315080000802519000825190008251900080000000090
S31508000090000000000000000000000000251900080C
S315080000A0251900082519000825190008251900082A
S315080000B0251900082519000825190008251900081A
S315080000C0251900082519000825190008251900080A
S315080000D02519000825190008251900080000000040
S315080000E02519000825190008251900080000000030
S315080000F000000000000000000000000025190008AC
S31508000100000000002519000825190008251900080F
S3150800011000000000000000000000000000000000D1
S3150800012025190008251900082519000825190008A9
S31508000130251900080000000000000000000000006B
S31508000140000000000000000000000000251900085B
S315080001502519000825190008251900082519000879
S3150800016025190008251900080000000000000000F5
S315080001700000000000000000000000000000000071
S31508000180000000002519000800000000000000001B
S309080001902519000817
S3150800019410B5054C237833B9044B13B10448AFF3AF
S315080001A400800123237010BD0C000020000000000D
S315080001B4AC36000808B5034B1BB103490348AFF333
S315080001C4008008BD0000000010000020AC360008BE
S315080001D453B94AB9002908BF00281CBF4FF0FF319C
S315080001E44FF0FF3000F088B9ADF1080C6DE904CE84
S315080001F400F006F8DDF804E0DDE9022304B07047F0
S315080002042DE9F047089D8E4604468846002B4AD1B8
S315080002148A42174662D9B2FA82F64EB1C6F120036B
S3150800022401FA06F820FA03F3B74043EA0808B4408B
S315080002344FEA174E1FFA87FCB8FBFEF1230C0EFB98
S31508000244118843EA084301FB0CF29A4209D9FB18C0
S3150800025401F1FF3080F0EA809A4240F2E7800239E1
S315080002643B449A1AA3B2B2FBFEF00EFB102243EAF1
S31508000274024300FB0CFC9C4509D9FB1800F1FF322C
S3150800028480F0D6809C4540F2D3803B44023840EA4D
S315080002940140A3EB0C0300211DB1F3400022C5E97C
S315080002A40032BDE8F0878B4205D90DB1C5E90001D6
S315080002B400210846F5E7B3FA83F1002946D17345C8
S315080002C402D3824200F20581841A6EEB03020120EE
S315080002D49046002DE5D0C5E90048E2E7002A00F07B
S315080002E49080B2FA82F6002E40F0A4808A1A030C93
S315080002F44FEA174E80B2BCB20121B2FBFEFC0EFBDC
S315080003041C2243EA024304FB0CF29A4207D9FB185F
S315080003140CF1FF3802D29A4200F2E080C4469B1AD6
S31508000324B3FBFEF20EFB123340EA034302FB04F46A
S315080003349C4207D9FB1802F1FF3002D29C4200F214
S31508000344CA8002461B1B42EA0C40A5E7C1F12006F7
S315080003548B4022FA06F71F430EFA01F420FA06F335
S315080003642EFA06FE4FEA1749234300FA01F81FFA44
S3150800037487FCBEFBF9F01C0C09FB10EE44EA0E449C
S3150800038400FB0CFEA64502FA01F209D93C1900F154
S31508000394FF3A80F09C80A64540F2998002383C4496
S315080003A4A4EB0E041FFA83FEB4FBF9F309FB13440A
S315080003B44EEA044403FB0CFCA44508D93C1903F192
S315080003C4FF3E80F08280A4457FD9023B3C4443EA41
S315080003D40040A4EB0C04A0FB02EC64457346E1461A
S315080003E462D35FD05DB1B8EB030264EB090404FA87
S315080003F406F622FA01F31E43CC40C5E9006400213F
S315080004044FE7B1FBF2FC010C41EA0E4180B240EA27
S3150800041401423B4638463C46B846BE462026B1FB12
S31508000424F7F1A2EB080241EA0C4166E7014618E730
S3150800043410462CE7C6F120022EFA02F3B740B14063
S3150800044420FA02F24FEA174E0A43B3FBFEF8BCB28F
S315080004540EFB1833110C41EA034108FB04F9B040BA
S3150800046489454FEA104380B23ED9791808F1FF3C12
S3150800047401D289451FD8A1EB0901B1FBFEF909FB95
S3150800048404F80EFB191192B242EA0142424529D2F6
S31508000494BA1809F1FF31C4D24245C2D2A9F1020100
S315080004A43A44BEE7F0459DD2BEEB02036CEB070C5B
S315080004B40138E14696E7A7EB09094944A8F1020C75
S315080004C4B1FBFEF909FB04F8DBE773467FE7504600
S315080004D466E70846FDE63B44023A33E7ACF1020C0C
S315080004E43B441CE749469CE7A1EB0901C446B1FB1A
S315080004F4FEF909FB04F8C4E7704700BF2DE9F003C9
S31508000504FEB000AF07F5FC73A3F5F673186007F59C
S31508000514FC73A3F5F873196007F5FC73A3F5FA736E
S315080005241A60E34B07F5A8769C46BCE80F000FC68D
S315080005349CE80F0086E80F0007F5FC73A3F5F8732B
S315080005441B68C7F8D031AAE10023C7F8D43139E0CB
S3150800055407F5FC73A3F5F6731B681B781A0607F5EB
S31508000564FC73A3F5F6731B6801331B781B041A4343
S3150800057407F5FC73A3F5F6731B6802331B781B0295
S31508000584134307F5FC72A2F5F67212680332127861
S3150800059443EA020107F5FC73A3F5D473D7F8D4210B
S315080005A443F8221007F5FC73A3F5F67307F5FC72F6
S315080005B4A2F5F672126804321A60D7F8D4310133F8
S315080005C4C7F8D431D7F8D4310F2BC1D91023C7F8BB
S315080005D4D43171E0D7F8D431A3F10F0207F5FC73CF
S315080005E4A3F5D47353F822304FEAF312D7F8D4316B
S315080005F4A3F10F0107F5FC73A3F5D47353F821305F
S315080006044FEAB3435A40D7F8D431A3F10F0107F59B
S31508000614FC73A3F5D47353F82130DB085340C7F8A9
S315080006247431D7F8D4319A1E07F5FC73A3F5D4733D
S3150800063453F822304FEA7342D7F8D431991E07F596
S31508000644FC73A3F5D47353F821304FEAF3435A40A5
S31508000654D7F8D431991E07F5FC73A3F5D47353F868
S3150800066421309B0A5340C7F87031D7F8D431A3F127
S31508000674100207F5FC73A3F5D47353F82220D7F8B0
S3150800068474311A44D7F8D431D91F07F5FC73A3F586
S31508000694D47353F821301A44D7F87031D11807F5B2
S315080006A4FC73A3F5D473D7F8D42143F82210D7F8EA
S315080006B4D4310133C7F8D431D7F8D4313F2B89D98B
S315080006C4D7F85031C7F8F431D7F85431C7F8F031B0
S315080006D4D7F85831C7F8EC31D7F85C31C7F8E831A0
S315080006E4D7F86031C7F8E431D7F86431C7F8E03190
S315080006F4D7F86831C7F8DC31D7F86C31C7F8D83180
S315080007040023C7F8D43188E0D7F8E4314FEAB312A6
S31508000714D7F8E4314FEAF3235A40D7F8E4314FEADD
S3150800072473635340C7F88431D7F8E421D7F8E03126
S315080007341A40D7F8E431D943D7F8DC310B40534093
S31508000744C7F88031D7F8D821D7F884311A44D7F8AE
S3150800075480311A445749D7F8D43151F823301A440A
S3150800076407F5FC73A3F5D473D7F8D41153F82130DD
S315080007741344C7F8C031D7F8F4314FEAB302D7F8AF
S31508000784F4314FEA73335A40D7F8F4314FEAB35386
S315080007945340C7F87C31D7F8F021D7F8EC315A40E2
S315080007A4D7F8F4311A40D7F8F011D7F8EC310B40E2
S315080007B45340C7F87831D7F87C21D7F878311344F1
S315080007C4C7F8B431D7F8DC31C7F8D831D7F8E031EF
S315080007D4C7F8DC31D7F8E431C7F8E031D7F8E821AF
S315080007E4D7F8C0311344C7F8E431D7F8EC31C7F861
S315080007F4E831D7F8F031C7F8EC31D7F8F431C7F84F
S31508000804F031D7F8C021D7F8B4311344C7F8F43116
S31508000814D7F8D4310133C7F8D431D7F8D4313F2BBC
S315080008247FF672AFD7F85021D7F8F4311344C7F8D6
S315080008345031D7F85421D7F8F0311344C7F8543156
S31508000844D7F85821D7F8EC311344C7F85831D7F8F4
S315080008545C21D7F8E8311344C7F85C31D7F860212E
S31508000864D7F8E4311344C7F86031D7F86421D7F8C8
S31508000874E0311344C7F86431D7F86821D7F8DC3176
S315080008841344C7F86831D7F86C21D7F8D83113441C
S31508000894C7F86C31D7F8D031403BC7F8D031D7F810
S315080008A4D0313F2B3FF650AE0023C7F8CC311AE0BF
S315080008B4C43600083838000807F5FC73A3F5F67340
S315080008C41A68D7F8CC311344197807F5FC73A3F5DD
S315080008D4F472D7F8CC3113440A461A70D7F8CC31D7
S315080008E40133C7F8CC31D7F8CC21D7F8D0319A429E
S315080008F4E2D3D7F8D0315A1CC7F8D02107F5FC72D1
S31508000904A2F5F4728021D154D7F8D031382B40F2AD
S31508000914C2810AE0D7F8D0315A1CC7F8D02107F5A6
S31508000924FC72A2F5F4720021D154D7F8D0313F2BCA
S31508000934F0D90023C7F8D43136E0D7F8D4319B0070
S3150800094407F5FC72A2F5F472D35C1A06D7F8D4310B
S315080009549B00013307F5FC71A1F5F471CB5C1B040C
S315080009641A43D7F8D4319B00023307F5FC71A1F575
S31508000974F471CB5C1B021343D7F8D42192000332DB
S3150800098407F5FC71A1F5F4718A5C43EA020107F5DF
S31508000994FC73A3F5D473D7F8D42143F82210D7F8F7
S315080009A4D4310133C7F8D431D7F8D4310F2BC4D98D
S315080009B41023C7F8D43171E0D7F8D431A3F10F0264
S315080009C407F5FC73A3F5D47353F822304FEAF312F0
S315080009D4D7F8D431A3F10F0107F5FC73A3F5D47343
S315080009E453F821304FEAB3435A40D7F8D431A3F128
S315080009F40F0107F5FC73A3F5D47353F82130DB080C
S31508000A045340C7F8B031D7F8D4319A1E07F5FC73AA
S31508000A14A3F5D47353F822304FEA7342D7F8D43186
S31508000A24991E07F5FC73A3F5D47353F821304FEADE
S31508000A34F3435A40D7F8D431991E07F5FC73A3F546
S31508000A44D47353F821309B0A5340C7F8AC31D7F80E
S31508000A54D431A3F1100207F5FC73A3F5D47353F844
S31508000A642220D7F8B0311A44D7F8D431D91F07F55C
S31508000A74FC73A3F5D47353F821301A44D7F8AC3170
S31508000A84D11807F5FC73A3F5D473D7F8D42143F822
S31508000A942210D7F8D4310133C7F8D431D7F8D43172
S31508000AA43F2B89D9D7F85031C7F8F431D7F85431E0
S31508000AB4C7F8F031D7F85831C7F8EC31D7F85C31B4
S31508000AC4C7F8E831D7F86031C7F8E431D7F86431A4
S31508000AD4C7F8E031D7F86831C7F8DC31D7F86C3194
S31508000AE4C7F8D8310023C7F8D43188E0D7F8E431F9
S31508000AF44FEAB312D7F8E4314FEAF3235A40D7F84A
S31508000B04E4314FEA73635340C7F8C831D7F8E42190
S31508000B14D7F8E0311A40D7F8E431D943D7F8DC31AD
S31508000B240B405340C7F8C431D7F8D821D7F8C83191
S31508000B341A44D7F8C4311A44E649D7F8D43151F8D7
S31508000B4423301A4407F5FC73A3F5D473D7F8D411E4
S31508000B5453F821301344C7F8C031D7F8F4314FEAB3
S31508000B64B302D7F8F4314FEA73335A40D7F8F4315D
S31508000B744FEAB3535340C7F8BC31D7F8F021D7F836
S31508000B84EC315A40D7F8F4311A40D7F8F011D7F8AF
S31508000B94EC310B405340C7F8B831D7F8BC21D7F825
S31508000BA4B8311344C7F8B431D7F8DC31C7F8D831AB
S31508000BB4D7F8E031C7F8DC31D7F8E431C7F8E031C3
S31508000BC4D7F8E821D7F8C0311344C7F8E431D7F881
S31508000BD4EC31C7F8E831D7F8F031C7F8EC31D7F873
S31508000BE4F431C7F8F031D7F8C021D7F8B431134433
S31508000BF4C7F8F431D7F8D4310133C7F8D431D7F864
S31508000C04D4313F2B7FF672AFD7F85021D7F8F43199
S31508000C141344C7F85031D7F85421D7F8F0311344A0
S31508000C24C7F85431D7F85821D7F8EC311344C7F824
S31508000C345831D7F85C21D7F8E8311344C7F85C3142
S31508000C44D7F86021D7F8E4311344C7F86031D7F8E8
S31508000C546421D7F8E0311344C7F86431D7F868211A
S31508000C64D7F8DC311344C7F86831D7F86C21D7F8BC
S31508000C74D8311344C7F86C310023C7F8D0310AE0D9
S31508000C84D7F8D0315A1CC7F8D02107F5FC72A2F55B
S31508000C94F4720021D154D7F8D031372BF0D907F59F
S31508000CA4FC73A3F5F8731B680022984691464FF027
S31508000CB400024FF000034FEAC90343EA58734FEAA8
S31508000CC4C802C7E968230023C7F8CC3121E0D7F85E
S31508000CD4CC31D900D7E96823C1F12006A1F1200057
S31508000CE422FA01F403FA06F6344323FA00F004431D
S31508000CF423FA01F5D7F8CC31C3F13F03E1B207F57E
S31508000D04FC72A2F5F472D154D7F8CC310133C7F882
S31508000D14CC31D7F8CC31072BD9D90023C7F8D4312D
S31508000D2436E0D7F8D4319B0007F5FC72A2F5F472C5
S31508000D34D35C1A06D7F8D4319B00013307F5FC7146
S31508000D44A1F5F471CB5C1B041A43D7F8D4319B0084
S31508000D54023307F5FC71A1F5F471CB5C1B0213434E
S31508000D64D7F8D4219200033207F5FC71A1F5F47182
S31508000D748A5C43EA020107F5FC73A3F5D473D7F832
S31508000D84D42143F82210D7F8D4310133C7F8D43123
S31508000D94D7F8D4310F2BC4D91023C7F8D43171E04E
S31508000DA4D7F8D431A3F10F0207F5FC73A3F5D4736E
S31508000DB453F822304FEAF312D7F8D431A3F10F01CE
S31508000DC407F5FC73A3F5D47353F821304FEAB343FC
S31508000DD45A40D7F8D431A3F10F0107F5FC73A3F5EC
S31508000DE4D47353F82130DB085340C7F88C31D7F84D
S31508000DF4D4319A1E07F5FC73A3F5D47353F822303D
S31508000E044FEA7342D7F8D431991E07F5FC73A3F554
S31508000E14D47353F821304FEAF3435A40D7F8D43100
S31508000E24991E07F5FC73A3F5D47353F821309B0A6E
S31508000E345340C7F88831D7F8D431A3F1100207F51F
S31508000E44FC73A3F5D47353F82220D7F88C311A44CB
S31508000E54D7F8D431D91F07F5FC73A3F5D47353F81F
S31508000E6421301A44D7F88831D11807F5FC73A3F54D
S31508000E74D473D7F8D42143F82210D7F8D4310133E0
S31508000E84C7F8D431D7F8D4313F2B89D9D7F850319C
S31508000E94C7F8F431D7F85431C7F8F031D7F85831D0
S31508000EA4C7F8EC31D7F85C31C7F8E831D7F86031C0
S31508000EB4C7F8E431D7F86431C7F8E031D7F86831B0
S31508000EC4C7F8DC31D7F86C31C7F8D8310023C7F82E
S31508000ED4D4318AE038380008D7F8E4314FEAB31237
S31508000EE4D7F8E4314FEAF3235A40D7F8E4314FEA06
S31508000EF473635340C7F89C31D7F8E421D7F8E03137
S31508000F041A40D7F8E431D943D7F8DC310B405340BB
S31508000F14C7F89831D7F8D821D7F89C311A44D7F8A6
S31508000F2498311A448349D7F8D43151F823301A44EE
S31508000F3407F5FC73A3F5D473D7F8D41153F8213005
S31508000F441344C7F8C031D7F8F4314FEAB302D7F8D7
S31508000F54F4314FEA73335A40D7F8F4314FEAB353AE
S31508000F645340C7F89431D7F8F021D7F8EC315A40F2
S31508000F74D7F8F4311A40D7F8F011D7F8EC310B400A
S31508000F845340C7F89031D7F89421D7F890311344D1
S31508000F94C7F8B431D7F8DC31C7F8D831D7F8E03117
S31508000FA4C7F8DC31D7F8E431C7F8E031D7F8E821D7
S31508000FB4D7F8C0311344C7F8E431D7F8EC31C7F889
S31508000FC4E831D7F8F031C7F8EC31D7F8F431C7F877
S31508000FD4F031D7F8C021D7F8B4311344C7F8F4313F
S31508000FE4D7F8D4310133C7F8D431D7F8D4313F2BE5
S31508000FF47FF672AFD7F85021D7F8F4311344C7F8FF
S315080010045031D7F85421D7F8F0311344C7F854317E
S31508001014D7F85821D7F8EC311344C7F85831D7F81C
S315080010245C21D7F8E8311344C7F85C31D7F8602156
S31508001034D7F8E4311344C7F86031D7F86421D7F8F0
S31508001044E0311344C7F86431D7F86821D7F8DC319E
S315080010541344C7F86831D7F86C21D7F8D831134444
S31508001064C7F86C310023C7F8D43156E0D7F8D43121
S315080010749B0003F5FC733B4453F8A83C190ED7F8B8
S31508001084D4319B0007F5FC72A2F5FA721268134470
S31508001094CAB21A70D7F8D4319B0003F5FC733B44E3
S315080010A453F8A83C190CD7F8D4319B00013307F53B
S315080010B4FC72A2F5FA7212681344CAB21A70D7F807
S315080010C4D4319B0003F5FC733B4453F8A83C190A36
S315080010D4D7F8D4319B00023307F5FC72A2F5FA72ED
S315080010E412681344CAB21A70D7F8D4319B0003F5B0
S315080010F4FC733B4453F8A81CD7F8D4319B0003333C
S3150800110407F5FC72A2F5FA7212681344CAB21A7089
S31508001114D7F8D4310133C7F8D431D7F8D431072BEB
S31508001124A4D900BF00BF07F5FC77BD46BDE8F003A8
S31508001134704700BF3838000880B592B000AF002366
S315080011447B6477E03F4A7B6C52F833307B633D4AD5
S315080011547B6CDB0013445B683B637B6BFB6200239D
S315080011643B645FE0FA6A3B6C1344BB62BB6A0822C1
S315080011743549184602F05CFA0346002B46D1BB6A89
S31508001184083308223149184602F052FA0346002B5E
S315080011943ED1BB6A103308222D49184602F048FA94
S315080011A40346002B36D1BB6A183308222949184648
S315080011B402F03EFA0346002B2ED13B6C28337B62A1
S315080011C43B1D1A46796AF86AFFF798F90123FB6307
S315080011D40023BB6310E03A1DBB6B13441A78B96A43
S315080011E4BB6B0B4428331B789A4202D00023FB635B
S315080011F405E0BB6B0133BB63BB6B1F2BEBDDFB6BE2
S31508001204002B0BD0786B00F027F808E000BF06E047
S3150800121400BF04E000BF02E000BF00E000BF3B6C73
S3150800122408333B643B6C48333A6B9A429AD27B6CDC
S3150800123401337B647B6C062B84D900231846483714
S31508001244BD4680BD00380008E4360008F0360008BC
S31508001254FC3600080837000880B588B000AF786007
S315080012647B68FB61FB691B68BB61FB6904331B680C
S315080012747B61BB69B3F1005F75D3BB693D4A934291
S3150800128471D87B6903F00103002B6ED03A4801F04C
S31508001294C7FE3A4801F0C4FE43F6FF71384800F029
S315080012A44FFF49F6F371374800F04AFF4FF2F771DA
S315080012B4354800F045FF0421344800F041FF344B1B
S315080012C401221A6000BF334B1B6803F00203002B8C
S315080012D4F9D0304B9B682F4A23F00303936000BF71
S315080012E42C4B9B6803F00C03002BF9D12A4B0022E4
S315080012F41A60284B1B68274A23F480331360254B4E
S315080013041B68244A23F48023136000F071FB3861B8
S3150800131407E000F06DFB02463B69D31AB3F57A7F02
S3150800132406D81C4B1B6803F40033002BF1D100E0EC
S3150800133400BF1A4B1B68194A23F00703136072B6D9
S3150800134400BFBFF34F8F00BFBFF36F8F00BF144AB0
S315080013547B689360BB69FB60FB6883F3088800BFFE
S315080013647B69984702E000BF00E000BF2037BD460E
S3150800137480BD00BF008001202800002070000020E6
S31508001384000802400000024000040240000C02402B
S31508001394000047420038024060004742003C0240D1
S315080013A400ED00E080B500AF00F0BCFA00F00AF8E2
S315080013B400F0C6F800F09AF800F06EF8FFF7BCFEE5
S315080013C400BFFDE780B594B000AF07F120033022D3
S315080013D40021184602F03CF907F10C0300221A60B2
S315080013E45A609A60DA601A610023BB60284B1B6C4A
S315080013F4274A43F080531364254B1B6C03F0805330
S31508001404BB60BB6800237B60224B1B6823F4404304
S31508001414204A43F4004313601E4B1B6803F44043FD
S315080014247B607B6801233B624FF480337B62022333
S31508001434BB634FF48003FB630C233B6448237B6440
S315080014440223BB640723FB6407F12003184600F054
S3150800145479FF0346002B01D000F012F90F23FB6035
S3150800146402233B6100237B614FF48053BB61002355
S31508001474FB6107F10C030221184601F08FFA0346B3
S31508001484002B01D000F0FCF800BF5037BD4680BDE4
S31508001494003802400070004080B500AF114B124A74
S315080014A41A60104B4FF4E1325A600E4B00229A60D0
S315080014B40C4B0022DA600B4B00221A61094B0C22F2
S315080014C45A61084B00229A61064B0022DA610548E4
S315080014D401F0ECFC0346002B01D000F0D1F800BF64
S315080014E480BD00BF280000200010014080B500AF71
S315080014F4114B124A1A60104B4FF4E1325A600E4BE4
S3150800150400229A600C4B0022DA600B4B00221A6107
S31508001514094B0C225A61084B00229A61064B002299
S31508001524DA61054801F0C2FC0346002B01D000F03D
S31508001534A7F800BF80BD00BF70000020004400402B
S3150800154480B58AB000AF07F1140300221A605A6006
S315080015549A60DA601A6100233B61444B1B6B434A69
S3150800156443F004031363414B1B6B03F004033B6111
S315080015743B690023FB603D4B1B6B3C4A43F08003ED
S3150800158413633A4B1B6B03F08003FB60FB68002371
S31508001594BB60364B1B6B354A43F001031363334B6D
S315080015A41B6B03F00103BB60BB6800237B602F4BF6
S315080015B41B6B2E4A43F0020313632C4B1B6B03F07D
S315080015C402037B607B6800233B60284B1B6B274A1E
S315080015D443F008031363254B1B6B03F008033B60B6
S315080015E43B684FF400537B614FF40413BB6100233B
S315080015F4FB6107F1140319461D4800F00FFB41F679
S31508001604FF737B610323BB610023FB6107F11403AA
S315080016141946174800F002FB49F6F3137B610323C6
S31508001624BB610023FB6107F114031946114800F056
S31508001634F5FA4FF2F7737B610323BB610023FB6161
S3150800164407F1140319460C4800F0E8FA04237B61F1
S315080016540323BB610023FB6107F1140319460748FA
S3150800166400F0DCFA00BF2837BD4680BD00380240CA
S31508001674000802400000024000040240000C024038
S3150800168480B400AF72B600BF00BFFDE780B483B074
S3150800169400AF7860396000BF0C37BD465DF8047B3F
S315080016A47047000080B483B000AF00237B60104B02
S315080016B45B6C0F4A43F4804353640D4B5B6C03F431
S315080016C480437B607B6800233B60094B1B6C084A9C
S315080016D443F080531364064B1B6C03F080533B6042
S315080016E43B6800BF0C37BD465DF8047B704700BFF6
S315080016F40038024080B58CB000AF786007F11C034F
S3150800170400221A605A609A60DA601A617B681B685C
S31508001714324A93422DD10023BB61314B5B6C304A6C
S3150800172443F0100353642E4B5B6C03F01003BB6148
S31508001734BB6900237B612A4B1B6B294A43F00103CF
S315080017441363274B1B6B03F001037B617B694FF41F
S31508001754C063FB6102233B6200237B620323BB62F3
S315080017640723FB6207F11C0319461E4800F056FAC4
S3150800177430E07B681B681C4A93422BD100233B61EB
S31508001784174B1B6C164A43F400331364144B1B6C37
S3150800179403F400333B613B690023FB60104B1B6B6E
S315080017A40F4A43F0010313630D4B1B6B03F001034C
S315080017B4FB60FB680C23FB6102233B6200237B620C
S315080017C40023BB620723FB6207F11C03194605487D
S315080017D400F024FA00BF3037BD4680BD0010014032
S315080017E400380240000002400044004080B582B040
S315080017F400AF78607B681B68104A93420BD1104B84
S315080018045B6C0F4A23F0100353644FF4C0610D4810
S3150800181400F096FC0EE07B681B680B4A934209D1DC
S31508001824074B1B6C064A23F4003313640C21054842
S3150800183400F086FC00BF0837BD4680BD0010014095
S3150800184400380240000002400044004080B400AF63
S3150800185400BFFDE780B400AF00BFFDE780B400AF6A
S3150800186400BFFDE780B400AF00BFFDE780B400AF5A
S3150800187400BFFDE780B400AF00BFBD465DF8047B3A
S31508001884704780B400AF00BFBD465DF8047B70475F
S3150800189480B400AF00BFBD465DF8047B704780B5D1
S315080018A400AF00F091F800BF80BD000080B400AF1F
S315080018B4064BD3F88830054A43F47003C2F88830D7
S315080018C400BFBD465DF8047B704700BF00ED00E02D
S315080018D4DFF834D0FFF7EAFF0C480D490D4A002318
S315080018E402E0D458C4500433C4188C42F9D30A4AC3
S315080018F40A4C002301E013600432A242FBD301F030
S31508001904AFFEFFF74FFD704700800120000000205E
S315080019140C000020603900080C000020BC000020E0
S31508001924FEE7000080B500AF0E4B1B680D4A43F472
S31508001934007313600B4B1B680A4A43F480631360F5
S31508001944084B1B68074A43F480731360032000F0AE
S315080019540DF9002000F008F8FFF7A4FE0023184646
S3150800196480BD00BF003C024080B582B000AF7860FD
S31508001974124B1A68124B1B7819464FF47A73B3FB49
S31508001984F1F3B2FBF3F3184600F03CF90346002BD7
S3150800199401D001230EE07B680F2B0AD80022796850
S315080019A44FF0FF3000F002F9064A7B681360002303
S315080019B400E0012318460837BD4680BD0000002014
S315080019C4080000200400002080B400AF064B1B78F2
S315080019D41A46064B1B681344044A136000BFBD46E7
S315080019E45DF8047B704700BF08000020B80000209B
S315080019F480B400AF034B1B681846BD465DF8047BEC
S31508001A04704700BFB800002080B485B000AF786086
S31508001A147B6803F00703FB600C4BDB68BB60BA68A2
S31508001A244FF6FF031340BB60FB681A02BB681343F7
S31508001A3443F0BF6343F40033BB60044ABB68D36016
S31508001A4400BF1437BD465DF8047B704700ED00E01F
S31508001A5480B400AF044BDB681B0A03F0070318467F
S31508001A64BD465DF8047B704700ED00E080B483B0A2
S31508001A7400AF03463960FB7197F90730002B0ADB80
S31508001A843B68DAB20C4997F907301201D2B20B4413
S31508001A9483F800230AE03B68DAB20849FB7903F0C5
S31508001AA40F03043B1201D2B20B441A7600BF0C375B
S31508001AB4BD465DF8047B704700E100E000ED00E0F8
S31508001AC480B489B000AFF860B9607A60FB6803F047
S31508001AD40703FB61FB69C3F10703042B28BF04232F
S31508001AE4BB61FB690433062B02D9FB69033B00E09F
S31508001AF400237B614FF0FF32BB6902FA03F3DA4332
S31508001B04BB681A407B699A404FF0FF317B6901FA3A
S31508001B1403F3D9437B680B40134318462437BD4661
S31508001B245DF8047B7047000080B582B000AF78602A
S31508001B347B68013BB3F1807F01D301230FE00A4A96
S31508001B447B68013B53600F214FF0FF30FFF78EFF90
S31508001B54054B00229A60044B07221A600023184694
S31508001B640837BD4680BD00BF10E000E080B582B0EE
S31508001B7400AF78607B68072B0FD07B68062B0CD0E8
S31508001B847B68052B09D07B68042B06D07B68032B5E
S31508001B9403D090210448FFF779FD7868FFF734FFEE
S31508001BA400BF0837BD4680BD1437000880B586B027
S31508001BB400AF0346B9607A60FB7300237B617B68D8
S31508001BC40F2B03D9A8210E48FFF760FDBB680F2B1E
S31508001BD403D9A9210A48FFF759FDFFF739FF7861A8
S31508001BE47A68B9687869FFF76BFF024697F90F3088
S31508001BF411461846FFF73AFF00BF1837BD4680BDA1
S31508001C041437000880B582B000AF78607868FFF7AB
S31508001C148BFF034618460837BD4680BD80B588B095
S31508001C2400AF7860396000237B6100233B610023A1
S31508001C34BB617B68324A934217D07B68314A934228
S31508001C4413D07B68304A93420FD07B682F4A93425D
S31508001C540BD07B682E4A934207D07B682D4A934261
S31508001C6403D0AC212C48FFF711FD3B681B689BB2D7
S31508001C74002B04D03B681B68B3F5803F03D3AD2122
S31508001C842548FFF703FD3B685B68002B35D03B68A6
S31508001C945B68012B31D03B685B68112B2DD03B6800
S31508001CA45B68022B29D03B685B68122B25D03B68FE
S31508001CB45B68B3F5881F20D03B685B68B3F5041FDF
S31508001CC41BD03B685B68B3F5441F16D03B685B685A
S31508001CD4B3F5901F11D03B685B68B3F5081F0CD0A9
S31508001CE43B685B68B3F5481F07D03B685B68032B02
S31508001CF403D0AE210848FFF7C9FC0023FB6105E2BF
S31508001D04000002400004024000080240000C0240A1
S31508001D1400100240001C0240503700080122FB69EB
S31508001D2402FA03F37B613B681B687A6913403B61DB
S31508001D343A697B699A4240F0E6813B685B6803F03E
S31508001D440303012B05D03B685B6803F00303022BEE
S31508001D5444D13B68DB68002B0FD03B68DB68012B5A
S31508001D640BD03B68DB68022B07D03B68DB68032B88
S31508001D7403D0C0219448FFF789FC7B689B68BB6144
S31508001D84FB695B00032202FA03F3DB43BA691340D7
S31508001D94BB613B68DA68FB695B0002FA03F3BA695C
S31508001DA41343BB617B68BA699A607B685B68BB61ED
S31508001DB40122FB6902FA03F3DB43BA691340BB61E8
S31508001DC43B685B681B0903F00102FB6902FA03F32B
S31508001DD4BA691343BB617B68BA695A603B685B6836
S31508001DE403F00303032B27D03B689B68002B0BD017
S31508001DF43B689B68012B07D03B689B68022B03D082
S31508001E04D1217148FFF742FC7B68DB68BB61FB693B
S31508001E145B00032202FA03F3DB43BA691340BB618E
S31508001E243B689A68FB695B0002FA03F3BA691343D1
S31508001E34BB617B68BA69DA603B685B6803F00303D5
S31508001E44022B40F098803B681B69002B6FD03B68D7
S31508001E541B690C2B6BD03B681B69002B67D03B684E
S31508001E641B69002B63D03B681B69002B5FD03B685A
S31508001E741B69002B5BD03B681B69012B57D03B6859
S31508001E841B69012B53D03B681B69022B4FD03B6857
S31508001E941B69022B4BD03B681B69022B47D03B6856
S31508001EA41B69032B43D03B681B69032B3FD03B6854
S31508001EB41B69032B3BD03B681B69042B37D03B6853
S31508001EC41B69042B33D03B681B69042B2FD03B6852
S31508001ED41B69052B2BD03B681B69052B27D03B6850
S31508001EE41B69052B23D03B681B69062B1FD03B684F
S31508001EF41B69072B1BD03B681B69072B17D03B684C
S31508001F041B69082B13D03B681B69092B0FD03B6848
S31508001F141B69092B0BD03B681B690A2B07D03B6846
S31508001F241B690F2B03D0DE212748FFF7AFFBFB699C
S31508001F34DA087B68083253F82230BB61FB6903F080
S31508001F4407039B000F2202FA03F3DB43BA69134023
S31508001F54BB613B681A69FB6903F007039B0002FA35
S31508001F6403F3BA691343BB61FB69DA087B68083271
S31508001F74B96943F822107B681B68BB61FB695B007F
S31508001F84032202FA03F3DB43BA691340BB613B68D5
S31508001F945B6803F00302FB695B0002FA03F3BA69A0
S31508001FA41343BB617B68BA691A603B685B6803F4D0
S31508001FB44033002B00F0A7800023FB60034B5B6CC7
S31508001FC4024A43F4804303E05037000800380240CD
S31508001FD45364534B5B6C03F48043FB60FB68514AC0
S31508001FE4FB699B08023352F82330BB61FB6903F093
S31508001FF403039B000F2202FA03F3DB43BA69134077
S31508002004BB617B68484A934219D07B68474A934226
S3150800201413D07B68464A93420DD07B68454A93425F
S3150800202407D07B68444A934201D1042308E0072376
S3150800203406E0032304E0022302E0012300E0002370
S31508002044FA6902F0030292009340BA691343BB612A
S315080020543449FB699B080233BA6941F82320374B94
S315080020649B68BB613B69DB43BA691340BB613B6848
S315080020745B6803F48013002B03D0BA693B691343E6
S31508002084BB612E4ABB6993602C4BDB68BB613B6919
S31508002094DB43BA691340BB613B685B6803F400130E
S315080020A4002B03D0BA693B691343BB61234ABB6956
S315080020B4D360224B5B68BB613B69DB43BA69134057
S315080020C4BB613B685B6803F40033002B03D0BA6931
S315080020D43B691343BB61194ABB695360174B1B68B9
S315080020E4BB613B69DB43BA691340BB613B685B6808
S315080020F403F48033002B03D0BA693B691343BB61ED
S315080021040E4ABB691360FB690133FB61FB690F2B3C
S315080021147FF604AE00BF00BF2037BD4680BD00BFB2
S315080021240038024000380140000002400004024022
S3150800213400080240000C024000100240003C014026
S3150800214480B586B000AF7860396000233B61002310
S31508002154FB600023BB607B68714A934218D07B6896
S31508002164704A934214D07B686F4A934210D07B68B6
S315080021746E4A93420CD07B686D4A934208D07B68BA
S315080021846C4A934204D04FF497716B48FFF77EFA72
S3150800219400237B61BBE001227B6902FA03F33B61FE
S315080021A43A683B691340FB60FA683B699A4240F017
S315080021B4AB80624A7B699B08023352F82330BB60C2
S315080021C47B6903F003039B000F2202FA03F3BA6840
S315080021D41340BB607B68524A934219D07B68514AC4
S315080021E4934213D07B68504A93420DD07B684F4A7A
S315080021F4934207D07B684E4A934201D1042308E0F0
S31508002204072306E0032304E0022302E0012300E097
S3150800221400237A6902F0030292009340BA689A424C
S3150800222432D1474B1A68FB68DB43454913400B60B8
S31508002234434B5A68FB68DB43414913404B60404BA8
S31508002244DA68FB68DB433E491340CB603C4B9A682B
S31508002254FB68DB433A4913408B607B6903F003034D
S315080022649B000F2202FA03F3BB60344A7B699B087E
S31508002274023352F82310BB68DA4330487B699B085B
S315080022840A40023340F823207B681A687B695B009E
S31508002294032101FA03F3DB431A407B681A607B695E
S315080022A4DA087B68083253F822107B6903F00703BF
S315080022B49B000F2202FA03F3DB437A69D20819401A
S315080022C47B68083243F822107B68DA687B695B000E
S315080022D4032101FA03F3DB431A407B68DA607B685F
S315080022E45A6801217B6901FA03F3DB431A407B68C8
S315080022F45A607B689A687B695B00032101FA03F3D9
S31508002304DB431A407B689A607B6901337B617B698E
S315080023140F2B7FF640AF00BF00BF1837BD4680BD00
S31508002324000002400004024000080240000C02407B
S3150800233400100240001C02405037000800380140D3
S31508002344003C014080B586B000AF78607B68002BFE
S3150800235401D1012318E37B681B680F2B03D9E621F7
S315080023649748FFF793F97B681B6803F00103002B72
S3150800237400F088807B685B68002B0DD07B685B68FF
S31508002384B3F5803F08D07B685B68B3F5A02F03D00C
S31508002394EB218B48FFF77AF98A4B9B6803F00C0309
S315080023A4042B0CD0874B9B6803F00C03082B12D123
S315080023B4844B5B6803F48003B3F5800F0BD1814B20
S315080023C41B6803F40033002B5BD07B685B68002B27
S315080023D457D10123D8E27B685B68B3F5803F06D101
S315080023E4784B1B68774A43F4803313601DE07B6897
S315080023F45B68B3F5A02F0CD1724B1B68714A43F482
S31508002404802313606F4B1B686E4A43F48033136052
S315080024140BE06C4B1B686B4A23F480331360694BDF
S315080024241B68684A23F4802313607B685B68002B67
S3150800243413D0FFF7DDFA386108E0FFF7D9FA024648
S315080024443B69D31A642B01D903239DE25D4B1B68B0
S3150800245403F40033002BF0D014E0FFF7C9FA38610F
S3150800246408E0FFF7C5FA02463B69D31A642B01D97B
S31508002474032389E2534B1B6803F40033002BF0D182
S3150800248400E000BF7B681B6803F00203002B79D0C9
S315080024947B68DB68002B08D07B68DB68012B04D0DB
S315080024A440F21D114648FFF7F1F87B681B691F2B9C
S315080024B404D94FF48F714248FFF7E8F8414B9B68FB
S315080024C403F00C03002B0BD03E4B9B6803F00C0364
S315080024D4082B1CD13B4B5B6803F48003002B16D1F5
S315080024E4384B1B6803F00203002B05D07B68DB68B6
S315080024F4012B01D0012347E2324B1B6823F0F80273
S315080025047B681B69DB002F4913430B603AE07B6841
S31508002514DB68002B20D02C4B01221A60FFF768FADF
S31508002524386108E0FFF764FA02463B69D31A022BBE
S3150800253401D9032328E2234B1B6803F00203002B6B
S31508002544F0D0204B1B6823F0F8027B681B69DB007C
S315080025541C4913430B6015E01B4B00221A60FFF756
S3150800256447FA386108E0FFF743FA02463B69D31A8B
S31508002574022B01D9032307E2124B1B6803F002035B
S31508002584002BF0D17B681B6803F00803002B45D0A9
S315080025947B685B69002B08D07B685B69012B04D0D8
S315080025A44FF4AF710648FFF771F87B685B69002B37
S315080025B41ED0064B01221A60FFF71AFA386110E09A
S315080025C48C3700080038024000004742800E474214
S315080025D4FFF70EFA02463B69D31A022B01D90323E5
S315080025E4D2E15E4B5B6F03F00203002BF0D015E0DB
S315080025F45B4B00221A60FFF7FBF9386108E0FFF726
S31508002604F7F902463B69D31A022B01D90323BBE126
S31508002614524B5B6F03F00203002BF0D17B681B68F7
S3150800262403F00403002B00F0B0800023FB757B68DD
S315080026349B68002B0CD07B689B68012B08D07B68B1
S315080026449B68052B04D04FF4C5714648FFF71EF85E
S31508002654424B1B6C03F08053002B0FD10023BB6045
S315080026643E4B1B6C3D4A43F0805313643B4B1B6C37
S3150800267403F08053BB60BB680123FB753A4B1B68A8
S3150800268403F48073002B18D1374B1B68364A43F47E
S3150800269480731360FFF7ACF9386108E0FFF7A8F90F
S315080026A402463B69D31A022B01D903236CE12E4B4C
S315080026B41B6803F48073002BF0D07B689B68012B9E
S315080026C406D1264B1B6F254A43F0010313671CE00A
S315080026D47B689B68052B0CD1204B1B6F1F4A43F064
S315080026E4040313671D4B1B6F1C4A43F0010313674E
S315080026F40BE01A4B1B6F194A23F001031367174B98
S315080027041B6F164A23F0040313677B689B68002B28
S3150800271415D0FFF76DF938610AE0FFF769F9024643
S315080027243B69D31A41F28832934201D903232BE138
S315080027340A4B1B6F03F00203002BEED01CE0FFF7D5
S3150800274457F9386112E0FFF753F902463B69D31A81
S3150800275441F28832934209D9032315E1003802402D
S31508002764800E47428C37000800700040884B1B6F68
S3150800277403F00203002BE6D1FB7D012B05D1844B24
S315080027841B6C834A23F0805313647B689B69002B74
S315080027940CD07B689B69012B08D07B689B69022B4C
S315080027A404D040F2CD117B48FEF770FF7B689B6925
S315080027B4002B00F0E880764B9B6803F00C03082B8B
S315080027C400F0A9807B689B69022B40F08D807B68AA
S315080027D4DB69002B09D07B68DB69B3F5800F04D06D
S315080027E44FF4EB716B48FEF751FF7B681B6A012BAC
S315080027F403D97B681B6A3F2B04D940F2D711654875
S31508002804FEF744FF7B685B6A312B04D97B685B6AF5
S31508002814B3F5D87F04D94FF4EC715E48FEF736FF5A
S315080028247B689B6A022B10D07B689B6A042B0CD0AE
S315080028347B689B6A062B08D07B689B6A082B04D0A6
S3150800284440F2D9115348FEF721FF7B68DB6A012B56
S3150800285403D97B68DB6A0F2B04D94FF4ED714D4815
S31508002864FEF714FF4C4B00221A60FFF7C1F83861D3
S3150800287408E0FFF7BDF802463B69D31A022B01D9D3
S31508002884032381E0424B1B6803F00073002BF0D14D
S315080028947B68DA697B681B6A1A437B685B6A9B01F7
S315080028A41A437B689B6A5B08013B1B041A437B68D3
S315080028B4DB6A1B06364913434B60374B01221A6001
S315080028C4FFF796F8386108E0FFF792F802463B6985
S315080028D4D31A022B01D9032356E02D4B1B6803F0A8
S315080028E40073002BF0D04EE02B4B00221A60FFF742
S315080028F47FF8386108E0FFF77BF802463B69D31A8C
S31508002904022B01D903233FE0214B1B6803F0007314
S31508002914002BF0D137E07B689B69012B01D1012399
S3150800292432E01B4B5B68FB607B689B69012B28D0F4
S31508002934FB6803F480027B68DB699A4221D1FB6851
S3150800294403F03F027B681B6A9A421AD1FA6847F673
S31508002954C07313407A68526A9201934211D1FB6894
S3150800296403F440327B689B6A5B08013B1B049A426A
S3150800297407D1FB6803F070627B68DB6A1B069A4220
S3150800298401D0012300E0002318461837BD4680BD50
S31508002994003802408C3700086000474280B584B08E
S315080029A400AF786039607B68002B01D1012374E19C
S315080029B47B681B68002B03D07B681B680F2B04D924
S315080029C440F25A217B48FEF761FE3B68002B19D07A
S315080029D43B68012B16D03B68022B13D03B68032BAC
S315080029E410D03B68042B0DD03B68052B0AD03B68F6
S315080029F4062B07D03B68072B04D040F25B216D48B1
S31508002A04FEF744FE6C4B1B6803F007033A689A42C8
S31508002A140CD9694B3A68D2B21A70674B1B6803F033
S31508002A2407033A689A4201D0012336E17B681B689A
S31508002A3403F00203002B49D07B681B6803F00403E8
S31508002A44002B05D05D4B9B685C4A43F4E0539360C6
S31508002A547B681B6803F00803002B05D0574B9B685B
S31508002A64564A43F4604393607B689B68002B24D0E2
S31508002A747B689B68802B20D07B689B68902B1CD036
S31508002A847B689B68A02B18D07B689B68B02B14D0F6
S31508002A947B689B68C02B10D07B689B68D02B0CD0B6
S31508002AA47B689B68E02B08D07B689B68F02B04D076
S31508002AB440F27E213F48FEF7E9FD404B9B6823F030
S31508002AC4F0027B689B683D4913438B607B681B68EF
S31508002AD403F00103002B59D07B685B68002B10D0E8
S31508002AE47B685B68012B0CD07B685B68022B08D07B
S31508002AF47B685B68032B04D040F285212D48FEF7DA
S31508002B04C5FD7B685B68012B07D12C4B1B6803F456
S31508002B140033002B19D10123BFE07B685B68022BC5
S31508002B2403D07B685B68032B07D1244B1B6803F02F
S31508002B340073002B09D10123AFE0204B1B6803F077
S31508002B440203002B01D10123A7E01C4B9B6823F049
S31508002B5403027B685B68194913438B60FEF748FFD9
S31508002B64F8600AE0FEF744FF0246FB68D31A41F20E
S31508002B748832934201D903238FE0104B9B6803F0F4
S31508002B840C027B685B689B009A42EBD10A4B1B6874
S31508002B9403F007033A689A4212D2074B3A68D2B24C
S31508002BA41A70054B1B6803F007033A689A4207D064
S31508002BB4012372E08C370008003C024000380240CA
S31508002BC47B681B6803F00403002B25D07B68DB684D
S31508002BD4002B18D07B68DB68B3F5805F13D07B685D
S31508002BE4DB68B3F5A05F0ED07B68DB68B3F5C05F1E
S31508002BF409D07B68DB68B3F5E05F04D040F2C321F3
S31508002C042848FEF743FD284B9B6823F4E0527B686B
S31508002C14DB68254913438B607B681B6803F008034C
S31508002C24002B26D07B681B69002B18D07B681B6990
S31508002C34B3F5805F13D07B681B69B3F5A05F0ED02C
S31508002C447B681B69B3F5C05F09D07B681B69B3F55C
S31508002C54E05F04D040F2CA211248FEF717FD124B72
S31508002C649B6823F460427B681B69DB000E491343A7
S31508002C748B6000F021F802460B4B9B681B0903F096
S31508002C840F030A49CB5C22FA03F3094A1360094B7A
S31508002C941B681846FEF768FE002318461037BD461B
S31508002CA480BD00BF8C370008003802403839000858
S31508002CB400000020040000202DE9B04F90B000AFBA
S31508002CC400237B630023FB6300233B630023BB636E
S31508002CD4594B9B6803F00C03082B0DD0082B00F204
S31508002CE4A180002B02D0042B03D09BE0534BBB637B
S31508002CF49BE0534BBB6398E04F4B5B6803F03F0381
S31508002D047B634D4B5B6803F48003002B28D04A4B46
S31508002D145B689B0900223B627A623B6AC3F308003C
S31508002D240021474B03FB01F2002300FB03F3134482
S31508002D34434AA0FB0212FA620A46BA62FA6A1344C2
S31508002D44FB627B6B0022BB61FA61D7E90623D7E9EC
S31508002D540A01FDF73DFA02460B461346FB6353E0A8
S31508002D64354B5B689B0900223B617A613B69C3F377
S31508002D74080A4FF0000B52465B464FF000004FF02E
S31508002D840001590141EAD261500102460B46B2EBF1
S31508002D940A0863EB0B094FF000024FF000034FEAF1
S31508002DA4891343EA98634FEA8812B2EB080463EB83
S31508002DB409054FF000024FF00003EB0043EA547391
S31508002DC4E20014461D4614EB0A033B6045EB0B036D
S31508002DD47B604FF000024FF00003D7E9004529460F
S31508002DE48B02214643EA915321468A021046194624
S31508002DF47B6B0022BB60FA60D7E90223FDF7E8F98A
S31508002E0402460B461346FB630B4B5B681B0C03F02D
S31508002E14030301335B003B63FA6B3B6BB2FBF3F3CF
S31508002E24BB6302E0054BBB6300BFBB6B1846403768
S31508002E34BD46BDE8B08F00BF003802400024F40048
S31508002E4400366E0180B400AF034B1B681846BD46B6
S31508002E545DF8047B704700BF0000002080B500AF12
S31508002E64FFF7F0FF0246054B9B689B0A03F007032E
S31508002E740349CB5C22FA03F3184680BD00380240A6
S31508002E844839000880B500AFFFF7DCFF0246054B5A
S31508002E949B685B0B03F007030349CB5C22FA03F335
S31508002EA4184680BD003802404839000880B582B00B
S31508002EB400AF78607B68002B01D10123A3E07B680F
S31508002EC49B69002B2CD07B681B68514A93420ED011
S31508002ED47B681B684F4A934209D07B681B684E4A35
S31508002EE4934204D040F273114C48FEF7CFFB7B683B
S31508002EF49B69002B28D07B689B69B3F5807F23D018
S31508002F047B689B69B3F5007F1ED07B689B69B3F524
S31508002F14407F19D04FF4BA714048FEF7B7FB13E067
S31508002F247B681B683A4A93420ED07B681B68394A09
S31508002F34934209D07B681B68374A934204D04FF4FE
S31508002F44BC713648FEF7A2FB7B689B68002B09D048
S31508002F547B689B68B3F5805F04D04FF4BD712F4836
S31508002F64FEF794FB7B68DB69002B09D07B68DB6979
S31508002F74B3F5004F04D040F27B112848FEF786FBD0
S31508002F847B6893F84130DBB2002B06D17B680022BC
S31508002F9483F840207868FEF7ADFB7B68242283F823
S31508002FA441207B681B68DA687B681B6822F4005238
S31508002FB4DA60786800F082F87B681B681A697B68AF
S31508002FC41B6822F490421A617B681B685A697B68FD
S31508002FD41B6822F02A025A617B681B68DA687B68D8
S31508002FE41B6842F40052DA607B6800225A647B68E4
S31508002FF4202283F841207B68202283F842207B68BC
S3150800300400225A63002318460837BD4680BD00BF10
S31508003014001001400044004000140140C437000871
S3150800302480B582B000AF78607B68002B01D101239C
S3150800303438E07B681B681D4A93420ED07B681B6880
S315080030441B4A934209D07B681B681A4A934204D0E8
S3150800305440F2A6211848FEF719FB7B68242283F858
S3150800306441207B681B68DA687B681B6822F4005277
S31508003074DA607868FEF7BAFB7B6800225A647B68D4
S31508003084002283F841207B68002283F842207B686B
S3150800309400221A637B6800225A637B68002283F83D
S315080030A44020002318460837BD4680BD001001405D
S315080030B40044004000140140C43700082DE9B04F0D
S315080030C4C0B000AFC7F8F400D7F8F4305A68CF4B4D
S315080030D49A4204D940F69961CD48FEF7D7FAD7F84B
S315080030E4F430DB68002B0AD0D7F8F430DB68B3F584
S315080030F4005F04D040F69A61C548FEF7C7FAD7F8C8
S31508003104F4301B69002B10D0D7F8F4301B69B3F5DB
S31508003114806F0AD0D7F8F4301B69B3F5C06F04D0B2
S3150800312440F69B61BA48FEF7B1FAD7F8F4305A6903
S315080031344FF6F3731340002B04D1D7F8F4305B69C8
S31508003144002B04D140F69C61B148FEF79FFAD7F8E4
S31508003154F4301B681B6923F44050D7F8F430D96857
S31508003164D7F8F4301A6840EA01031361D7F8F43043
S315080031749A68D7F8F4301B691A43D7F8F4305B69B0
S315080031841A43D7F8F430DB691343C7F8F830D7F88D
S31508003194F4301B68DB6823F4164121F00C01D7F8D8
S315080031A4F4301A68D7F8F8300B43D360D7F8F430FC
S315080031B41B685B6923F44070D7F8F4309969D7F82B
S315080031C4F4301A6840EA01035361D7F8F4301A68F0
S315080031D4904B9A4205D0D7F8F4301A688E4B9A4227
S315080031E404D1FFF74FFEC7F8FC0003E0FFF736FEED
S315080031F4C7F8FC00D7F8F430DB69B3F5004F40F0A4
S315080032040F81D7F8FC300022C7F8E830C7F8EC205D
S31508003214D7E93A4522462B469118B9655B41FB65C1
S31508003224D7E91623214612EB0108294643EB01097F
S315080032344FF000024FF000034FEAC90343EA5873FC
S315080032444FEAC80290469946234618EB0303C7F883
S31508003254E0302B4649EB0303C7F8E430D7F8F430DB
S315080032645B680022C7F8D830C7F8DC20D7E93612DD
S315080032740B46DB183B65134642EB03037B65D7E92C
S315080032841423D7E93801FCF7A3FF02460B46634B20
S31508003294A3FB02235B091C01D7F8FC300022C7F8FC
S315080032A4D030C7F8D420D7E9348942464B4691181A
S315080032B4B9645B41FB64D7E91223414612EB010A60
S315080032C4494643EB010B4FF000024FF000034FEA67
S315080032D4CB0343EA5A734FEACA0292469B464346CD
S315080032E41AEB0303C7F8C8304B464BEB0303C7F87E
S315080032F4CC30D7F8F4305B680022C7F8C030C7F87A
S31508003304C420D7E930120B46DB183B64134642EB5C
S3150800331403037B64D7E91023D7E93201FCF758FF86
S3150800332402460B4611463D4BA3FB01235B09642267
S3150800333402FB03F3CB1ADB0003F13202374BA3FB80
S3150800334402235B095B0003F4F8731C44D7F8FC30CA
S315080033540022C7F8B830C7F8BC20D7E92E894246F8
S315080033644B469118B9635B41FB63D7E90E23414683
S315080033745118396349464B417B634FF000024FF0BD
S315080033840003D7E90CAB5946CB00514643EA5173BF
S315080033945146CA0010461946034642469B18C7F8C2
S315080033A4B0304B460A4642EB0303C7F8B430D7F8A5
S315080033B4F4305B680022C7F8A830C7F8AC20D7E910
S315080033C42A120B46DB18BB62134642EB0303FB6265
S315080033D4D7E90A23D7E92C01FCF7FAFE02460B467D
S315080033E40E4BA3FB02135B09642101FB03F3D31AF7
S315080033F4DB003233094AA2FB03235B0903F0070205
S31508003404D7F8F4301B6822449A6009E1A037A00073
S31508003414C437000800100140001401401F85EB5111
S31508003424D7F8FC300022C7F8A030C7F8A420D7E99B
S31508003434288942464B46911839625B417B62D7E933
S31508003444082341465418494643EB01054FF0000248
S315080034544FF00003EB0043EA5473E20014461D469A
S315080034644346E318C7F898304B4645EB0303C7F8B9
S315080034749C30D7F8F4305B680022C7F89030C7F858
S3150800348494204FF000024FF00003D7E9244529465B
S315080034948B00214643EA917321468A00D7E926011F
S315080034A4FCF796FE02460B46604BA3FB02235B0918
S315080034B41C01D7F8FC300022C7F88830C7F88C20DE
S315080034C4D7E9228942464B469118B9615B41FB61AB
S315080034D4D7E9062341465118396149464B417B6170
S315080034E44FF000024FF00003D7E904AB5946CB006E
S315080034F4514643EA51735146CA00104619460346D3
S3150800350442469B18C7F880304B460A4642EB0303EB
S31508003514C7F88430D7F8F4305B680022BB67FA67CB
S315080035244FF000024FF00003D7E91E8949468B0085
S31508003534414643EA917341468A00D7E92001FCF7DC
S3150800354447FE02460B461146384BA3FB01235B098B
S31508003554642202FB03F3CB1A1B013233334AA2FB60
S3150800356403235B0903F0F0031C44D7F8FC3000225C
S315080035743B677A67D7E91C8942464B469118B96076
S315080035845B41FB60D7E90223414651183960494635
S315080035944B417B604FF000024FF00003D7E900ABC4
S315080035A45946CB00514643EA51735146CA00104660
S315080035B41946034642469B18BB664B460A4642EBE7
S315080035C40303FB66D7F8F4305B6800223B667A6629
S315080035D44FF000024FF00003D7E9188949468B00DB
S315080035E4414643EA917341468A00D7E91A01FCF732
S315080035F4EFFD02460B460D4BA3FB02135B09642140
S3150800360401FB03F3D31A1B013233084AA2FB032333
S315080036145B0903F00F02D7F8F4301B6822449A605A
S3150800362400BF07F58077BD46BDE8B08F1F85EB510F
S3150800363410B501390244904201D1002005E003780F
S3150800364411F8014FA34201D0181B10BD0130F2E74F
S3150800365402440346934200D1704703F8011BF9E775
S3150800366470B50D4D0D4C641BA4100026A64209D155
S315080036740B4D0C4C00F018F8641BA4100026A64247
S3150800368405D170BD55F8043B98470136EEE755F861
S31508003694043B98470136F2E75839000858390008B8
S315080036A4583900085C390008F8B500BFF8BC08BCEE
S315080036B49E467047F8B500BFF8BC08BC9E467047DE
S315080036C467E6096A85AE67BB72F36E3C3AF54FA5A1
S315080036D47F520E518C68059BABD9831F19CDE05BCD
S315080036E4DEADBEEFCAFEBABE00000000215241108C
S315080036F43501454200000000FFFFFFFF00000000FF
S315080037040000000000FFFFFFFFFFFFFF00000000AE
S315080037142E2E2F447269766572732F53544D3332A5
S31508003724463478785F48414C5F4472697665722FEF
S315080037345372632F73746D3332663478785F6861B5
S315080037446C5F636F727465782E6300002E2E2F44A7
S315080037547269766572732F53544D333246347878CA
S315080037645F48414C5F4472697665722F5372632FC2
S3150800377473746D3332663478785F68616C5F67702A
S31508003784696F2E63000000002E2E2F447269766539
S3150800379472732F53544D3332463478785F48414C0C
S315080037A45F4472697665722F5372632F73746D332F
S315080037B432663478785F68616C5F7263632E63007F
S315080037C42E2E2F447269766572732F53544D3332F5
S315080037D4463478785F48414C5F4472697665722F3F
S315080037E45372632F73746D3332663478785F686105
S315080037F46C5F756172742E63000000000040000857
S3150800380400400000008000080040000000C00008D6
S315080038140040000000000108000001000000020842
S315080038240000020000000408000002000000060868
S3150800383400000200982F8A4291443771CFFBC0B525
S31508003844A5DBB5E95BC25639F111F159A4823F9259
S31508003854D55E1CAB98AA07D8015B8312BE853124B2
S31508003864C37D0C55745DBE72FEB1DE80A706DC9B73
S3150800387474F19BC1C1699BE48647BEEFC69DC10F1F
S31508003884CCA10C246F2CE92DAA84744ADCA9B05C5B
S31508003894DA88F97652513E986DC631A8C82703B01E
S315080038A4C77F59BFF30BE0C64791A7D55163CA062C
S315080038B467292914850AB72738211B2EFC6D2C4D38
S315080038C4130D385354730A65BB0A6A762EC9C28126
S315080038D4852C7292A1E8BFA24B661AA8708B4BC2BC
S315080038E4A3516CC719E892D1240699D685350EF4E6
S315080038F470A06A1016C1A419086C371E4C7748279D
S31508003904B5BCB034B30C1C394AAAD84E4FCA9C5B12
S31508003914F36F2E68EE828F746F63A5781478C88463
S315080039240802C78CFAFFBE90EB6C50A4F7A3F9BE45
S31508003934F27871C6000000000000000001020304CA
S3110800394406070809000000000102030441
S30D08003950B4C8FF7F0100000066
S30908003958B90100089B
S3090800395C95010008BB
S311080039600024F400100000000100000024
S705080018D505
