S01A0000426F6F744F6E6C79426F6F744C6F616465722E73726563E9
S31508000000008001203D100008151000081710000890
S31508000010191000081B1000081D1000080000000039
S315080000200000000000000000000000001F1000088B
S315080000302110000800000000231000082510000801
S315080000408D1000088D1000088D1000088D1000080E
S315080000508D1000088D1000088D1000088D100008FE
S315080000608D1000088D1000088D1000088D100008EE
S315080000708D1000088D1000088D1000088D100008DE
S315080000808D1000088D1000088D1000080000000073
S315080000900000000000000000000000008D100008AD
S315080000A08D1000088D1000088D1000088D100008AE
S315080000B08D1000088D1000088D1000088D1000089E
S315080000C08D1000088D1000088D1000088D1000088E
S315080000D08D1000088D1000088D1000080000000023
S315080000E08D1000088D1000088D1000080000000013
S315080000F00000000000000000000000008D1000084D
S31508000100000000008D1000088D1000088D100008F2
S3150800011000000000000000000000000000000000D1
S315080001208D1000088D1000088D1000088D1000082D
S315080001308D1000080000000000000000000000000C
S315080001400000000000000000000000008D100008FC
S315080001508D1000088D1000088D1000088D100008FD
S315080001608D1000088D100008000000000000000037
S315080001700000000000000000000000000000000071
S31508000180000000008D1000080000000000000000BC
S309080001908D100008B8
S3150800019410B5054C237833B9044B13B10448AFF3AF
S315080001A400800123237010BD2C00002000000000ED
S315080001B43824000808B5034B1BB103490348AFF3B9
S315080001C4008008BD00000000300000203824000824
S315080001D453B94AB9002908BF00281CBF4FF0FF319C
S315080001E44FF0FF3000F088B9ADF1080C6DE904CE84
S315080001F400F006F8DDF804E0DDE9022304B07047F0
S315080002042DE9F047089D8E4604468846002B4AD1B8
S315080002148A42174662D9B2FA82F64EB1C6F120036B
S3150800022401FA06F820FA03F3B74043EA0808B4408B
S315080002344FEA174E1FFA87FCB8FBFEF1230C0EFB98
S31508000244118843EA084301FB0CF29A4209D9FB18C0
S3150800025401F1FF3080F0EA809A4240F2E7800239E1
S315080002643B449A1AA3B2B2FBFEF00EFB102243EAF1
S31508000274024300FB0CFC9C4509D9FB1800F1FF322C
S3150800028480F0D6809C4540F2D3803B44023840EA4D
S315080002940140A3EB0C0300211DB1F3400022C5E97C
S315080002A40032BDE8F0878B4205D90DB1C5E90001D6
S315080002B400210846F5E7B3FA83F1002946D17345C8
S315080002C402D3824200F20581841A6EEB03020120EE
S315080002D49046002DE5D0C5E90048E2E7002A00F07B
S315080002E49080B2FA82F6002E40F0A4808A1A030C93
S315080002F44FEA174E80B2BCB20121B2FBFEFC0EFBDC
S315080003041C2243EA024304FB0CF29A4207D9FB185F
S315080003140CF1FF3802D29A4200F2E080C4469B1AD6
S31508000324B3FBFEF20EFB123340EA034302FB04F46A
S315080003349C4207D9FB1802F1FF3002D29C4200F214
S31508000344CA8002461B1B42EA0C40A5E7C1F12006F7
S315080003548B4022FA06F71F430EFA01F420FA06F335
S315080003642EFA06FE4FEA1749234300FA01F81FFA44
S3150800037487FCBEFBF9F01C0C09FB10EE44EA0E449C
S3150800038400FB0CFEA64502FA01F209D93C1900F154
S31508000394FF3A80F09C80A64540F2998002383C4496
S315080003A4A4EB0E041FFA83FEB4FBF9F309FB13440A
S315080003B44EEA044403FB0CFCA44508D93C1903F192
S315080003C4FF3E80F08280A4457FD9023B3C4443EA41
S315080003D40040A4EB0C04A0FB02EC64457346E1461A
S315080003E462D35FD05DB1B8EB030264EB090404FA87
S315080003F406F622FA01F31E43CC40C5E9006400213F
S315080004044FE7B1FBF2FC010C41EA0E4180B240EA27
S3150800041401423B4638463C46B846BE462026B1FB12
S31508000424F7F1A2EB080241EA0C4166E7014618E730
S3150800043410462CE7C6F120022EFA02F3B740B14063
S3150800044420FA02F24FEA174E0A43B3FBFEF8BCB28F
S315080004540EFB1833110C41EA034108FB04F9B040BA
S3150800046489454FEA104380B23ED9791808F1FF3C12
S3150800047401D289451FD8A1EB0901B1FBFEF909FB95
S3150800048404F80EFB191192B242EA0142424529D2F6
S31508000494BA1809F1FF31C4D24245C2D2A9F1020100
S315080004A43A44BEE7F0459DD2BEEB02036CEB070C5B
S315080004B40138E14696E7A7EB09094944A8F1020C75
S315080004C4B1FBFEF909FB04F8DBE773467FE7504600
S315080004D466E70846FDE63B44023A33E7ACF1020C0C
S315080004E43B441CE749469CE7A1EB0901C446B1FB1A
S315080004F4FEF909FB04F8C4E7704700BF2DE9F04F7D
S31508000504A74EDFF8BC92E5B0044607910B920FCECE
S315080005140CAD0FC596E80F0085E80F00079BA14AA6
S31508000524A149A24823F03F03E3180993A04BCDE958
S315080005340523A04BCDE903319F4BCDE9013003F1E7
S31508000544FE43A3F5E823A3F2ED4300930023099A97
S31508000554944240F09381079A02F03F0273B1059BD7
S315080005641393069B1293049B1193039B1093029B6C
S315080005740F93019B0E93009BCDE90C93099B14A939
S315080005849C1808469C4240F0FB81531C8020382B5B
S31508000594885440F29D800022CA540133402BFBD173
S315080005A424AA15460C460020637826781B0443EAD9
S315080005B40663E6783343A678013043EA062310280F
S315080005C445F8043B04F10404EED15468956B1646C9
S315080005D44FEAB443043283EAF41383EAD40334684F
S315080005E4166A344423444FEAF54484EA754484EA93
S315080005F49524013023444028D363E6D10C9B009309
S315080006040D9B01930E9B02930F9B0393109B0493DC
S31508000614119B0593129B0693139B0893DDE905C763
S31508000624DDE90380DDE90165644BDDF820A0009C63
S3150800063409934FF0000E0DF19009099A52F8043BFC
S3150800064409924FEAF02282EAB01282EA70620A92AA
S3150800065459F82E2003EB020B0A9A27EA00035A4498
S3150800066400EA0C0B83EA0B031A44524486EA050390
S315080006744FEA743A06EA050B8AEAB40A23408AEA78
S31508000684B45A83EA0B030EF1010E5344BEF1400F2C
S3150800069402EB080B1344A846BA4640F07681009A42
S315080006A41A44019B0C9223440D93029B33440E93E4
S315080006B4039B2B440F93049B5B441093059B0344B1
S315080006C41193069B63441293089B3B44139300239C
S315080006D4002214A8382B40F05F81079B24AD4FEA0B
S315080006E4537CD80000222B46C2F12007A2F120062B
S315080006F420FA02F40CFA07F73C432CFA06F60832F9
S315080007043443402A05F8014DEED11C4600204A78A8
S315080007140D78120442EA0562CD782A438D780130B1
S3150800072442EA0522102844F8042B01F10401EED10B
S3150800073459689C6B1D464FEAB142043382EAF112AA
S3150800074482EAD10229681D6A29440A444FEAF44117
S3150800075481EA744181EA942101300A444028DA6323
S31508000764E6D1DDE90CC300930E9B01930F9B02931C
S31508000774109B0393119B0493129B0593139B069357
S31508000784DDE9056ADDE90317DDE901480B4B009D40
S31508000794079360464FF0000E0DF1900912E000BF72
S315080007A45024000819CDE05B8C68059B3AF54FA5E3
S315080007B4ABD9831F7F520E5172F36E3C0426000890
S315080007C467E6096A079A52F8043B07924FEAF12248
S315080007D482EAB11282EA7162089259F82E2003EB72
S315080007E4020B089A26EA01035A4401EA070B83EA2C
S315080007F40B031A44524485EA04034FEA703A05EA9D
S31508000804040B8AEAB00A03408AEAB05A83EA0B035D
S315080008140EF1010E5344BEF1400F02EB080B1344CC
S31508000824A046B24640F0BB8063440C93009B0B9AE7
S3150800083403440D93019B2B440E93029B23440F936D
S31508000844039B5B441093049B0B441193059B3B4405
S315080008541293069B3344139302F120000CAB53F80E
S31508000864041BD1700C0E14700C0C54700C0A947082
S3150800087404329042F3D165B0BDE8F08F24AA11463C
S3150800088404F1400054F8043B1BBA844241F8043B83
S31508000894F8D110255168966B13464FEAB1400432D5
S315080008A480EAF11080EAD1001968136A19444FEAFC
S315080008B4F64383EA7643014483EA962301351944C9
S315080008C4402DD163E6D1394B0A93DDE905ACDDE960
S315080008D4031EDDE90065029B089348464FF00008AD
S315080008E40A9A24AF52F8043B57F828700A924FEA3A
S315080008F4F12282EAB11203EB070B82EA71625A44C7
S315080009042CEA010301EA0E0B83EA0B031A44524448
S3150800091486EA05034FEA703A089F089506EA050B26
S315080009248AEAB00A03408AEAB05A83EA0B0308F152
S31508000934010853441744B8F1400FBB461344E24632
S3150800094417D19944009B03440093019B33440193B4
S31508000954029B2B440293039B3B440393049B0B4443
S315080009640493069B73440693059B634405930123EA
S31508000974EDE5F44635468E46064659461846AFE72B
S3150800098413F8015B00F8015BFCE5674635468446C7
S31508000994264658461C4650E61A5401339AE63E46FD
S315080009A42C460F460546594618460BE70426000802
S315080009B410B594B0102200210AA801F00FFD1422E4
S315080009C4002103A801F00AFD204B002101911A6CAD
S315080009D442F080521A641B6C1D4A03F0805301933B
S315080009E4019B0291136823F4404343F400431360C4
S315080009F4136803F440430293029B01224FF48033A5
S31508000A040224CDE908234FF48003CDE90E430C21D3
S31508000A144823CDE9101308A807231294139301F069
S31508000A2439F808B172B6FEE70F23CDE903344FF45B
S31508000A348053CDE906300590214603A801F07CFAD7
S31508000A4408B172B6FEE714B010BD00BF0038024004
S31508000A54007000402DE98048002497B000F03AFB66
S31508000A64FFF7A6FFCDE91044B54B049412941A6B0C
S31508000A7442F004021A631A6B02F004020492049AFE
S31508000A8405941A6B42F080021A631A6B02F080020C
S31508000A940592059A06941A6B42F001021A631A6BB8
S31508000AA402F001020692069A07941A6B42F00202B1
S31508000AB41A631A6B02F002020792079A08941A6BD1
S31508000AC442F008021A631B6B03F008030893089B99
S31508000AD44FF400504FF40413CDE90E030EA99948B8
S31508000AE400F004FE032541F6FF73964810940EA9F8
S31508000AF4CDE90E3500F0FAFD49F6F3139248109441
S31508000B040EA9CDE90E3500F0F1FD4FF2F7738F48C3
S31508000B1410940EA9CDE90E3500F0E8FD04238C489F
S31508000B2410940EA9CDE90E3500F0E0FD89488A4BEC
S31508000B3404614FF4E1360C25C0E90036C0E90244E5
S31508000B44C0E90554C46101F097FB034608B172B6BF
S31508000B54FEE78248824AC0E90233C0E90026C0E9B2
S31508000B640435C0E9063301F087FB08B172B6FEE71F
S31508000B747C4E7D490822304601F020FC002841D1EC
S31508000B8408227A49B01801F019FC00283AD1D6E9A6
S31508000B94085A05F17843A3F58043B3F5F82F31D203
S31508000BA405F1774303F57C03B3F5003F2AD30AF12D
S31508000BB4FF33B3F5003F25D26D4B9D4239D303F578
S31508000BC480439D4237D36B4B9D4236D903F5803318
S31508000BD49D4234D903F500339D428CBF0723052370
S31508000BE40122CDE90B3200210223CDE909120D9326
S31508000BF400F00AFC03A909A800F014FD044600B392
S31508000C0400F014FC5C4B08369E42B2D15B4E0027BA
S31508000C14D6E9004338250193A146019A05F1200334
S31508000C249A4280F0B1800137072F06F10806EFD102
S31508000C34FEE70123D4E70223D2E70323D0E70423FC
S31508000C44CEE727460834A2454FF0000238BFAAEB80
S31508000C54070907F1006728BF4FF00809134611462C
S31508000C6407F5802717F801C04FEAC10EAEF1200830
S31508000C74CEF120000CFA08F82CFA00F0013148EA03
S31508000C8400000CFA0EFC49454CEA020243EA00034A
S31508000C94E8D1A5F1080B0829A3440CD15946032029
S31508000CA400F0F6FBB0FA80F0A2454FEA501028D9B6
S31508000CB40028C6D1A4E74FF00008414608F1040805
S31508000CC4C8454FF0000207EB01008CBFA9EB010CE5
S31508000CD44FF0040C134601900198C05C4FEAC30E0A
S31508000CE4013300FA0EF09C4542EA0002F4D10023CF
S31508000CF45944022000F0CCFBC845D3D20028DCD0E6
S31508000D047EE700283FF47CAF1D4971184FF0FF3287
S31508000D1400232944032000F0BBFB00287FF470AFAE
S31508000D24184D0FCD0EAC0FC42B68236003A90EA86B
S31508000D3400F078FC00F07AFB00F058FA62E700BF8E
S31508000D440038024000080240000002400004024045
S31508000D54000C024048000020004400409000002097
S31508000D640010014000000408962400089F24000887
S31508000D7400800008FFFF0008B0FF050804270008E4
S31508000D842800FCF77024000847490822484601F061
S31508000D9415FB09F10808002840F083804349082216
S31508000DA4404601F00BFB00287BD14149082209F192
S31508000DB4280001F003FB002873D13E49082209F1F3
S31508000DC4300001F0FBFA00286BD10EAA294620460A
S31508000DD4FFF794FB09F137020EAB09F1570913F82B
S31508000DE4011B12F8010F88425BD14A45F7D1D4E9B1
S31508000DF4009A09F16043B3F5C03F52D81AF0010FBF
S31508000E044FD02D4801F0AAFA2C4801F0A7FA2C482D
S31508000E1443F6FF7100F0A2FD2A4849F6F37100F083
S31508000E249DFD29484FF2F77100F098FD27480421E3
S31508000E3400F094FD264B01221A60264B1A68920785
S31508000E44FCD59A6822F003029A609A6812F00C029A
S31508000E54FBD11F490A661A6822F480321A601A6896
S31508000E6422F480221A6000F05BF91A4A8346116854
S31508000E748B0307D500F054F9A0EB0B00B0F57A7F85
S31508000E84144AF4D9144A136823F00703136072B694
S31508000E94BFF34F8FBFF36F8F104B9C6089F308889D
S31508000EA4D047C1460835B8E6962400089F240008AA
S31508000EB4842400088D24000890000020480000209F
S31508000EC4000802400000024000040240000C0240F0
S31508000ED40000474200380240003C024000ED00E0B2
S31508000EE47047000082B00C4B002100915A6C42F402
S31508000EF480425A645A6C02F480420092009A019124
S31508000F041A6C42F080521A641B6C03F080530193E6
S31508000F14019B02B0704700BF0038024010B5142286
S31508000F248AB0044600210DEB020001F057FA236843
S31508000F34224A934224D1224B002101915A6C42F051
S31508000F4410025A645A6C02F010020192019A029134
S31508000F541A6B42F001021A631B6B03F00103029336
S31508000F64029B4FF4C0610223CDE9051303230893BA
S31508000F7407231448099305A900F0B8FB0AB010BD65
S31508000F84114A9342FAD10E4B002103911A6C42F48A
S31508000F9400321A641A6C02F400320392039A04911A
S31508000FA41A6B42F001021A631B6B03F001030493E4
S31508000FB4049B0C220223CDE90523D9E7001001403E
S31508000FC400380240000002400044004003680D4A0D
S31508000FD493420AD102F594324FF4C061536C23F05C
S31508000FE410035364084800F0B9BC084A934207D171
S31508000FF402F5FA320C21136C23F400331364F1E777
S31508001004704700BF00100140000002400044004041
S31508001014FEE7FEE7FEE7FEE7FEE770477047704720
S3150800102400F072B8034AD2F8883043F47003C2F861
S315080010348830704700ED00E0DFF834D0FFF7F2FFA0
S315080010440C480D490D4A002302E0D458C450043311
S31508001054C4188C42F9D30A4A0A4C002301E01360E7
S315080010640432A242FBD301F0C1F9FFF7F3FC70473F
S3150800107400800120000000202C00002064270008BE
S315080010842C000020DC000020FEE7000038B50E4BDB
S315080010941A784FF47A73B3FBF2F30C4A05461068D0
S315080010A4B0FBF3F000F0B4F8044658B90F2D09D88C
S315080010B4024629464FF0FF3000F056F8044B204606
S315080010C41D6038BD0120FCE7040000200000002054
S315080010D40800002008B50B4B1A6842F400721A601F
S315080010E41A6842F480621A601A6842F480721A60B6
S315080010F4032000F01BF80020FFF7C8FFFFF7F2FEF5
S31508001104002008BD003C0240034A044B11681B78C2
S315080011140B441360704700BFD80000200400002069
S31508001124014B1868704700BFD8000020C31E042B63
S3150800113410B5044603D90A489021FFF7D1FE094998
S31508001144CA6822F4E0622302120403F4E063120C70
S31508001154134343F0BF6343F40033CB6010BD00BFB1
S31508001164A824000800ED00E00F2A70B505460C46D1
S31508001174164603D91A48A821FFF7B2FE0F2C03D93D
S315080011841748A921FFF7ACFE164BD968C1F302210B
S31508001194C1F107030A1D042B28BF0423062A4FF0AE
S315080011A4FF328CBF0339002102FA03F324EA03034E
S315080011B48A4026EA02068B40002D43EA0603ACBFA2
S315080011C405F16045084A4FEA0313B8BF05F00F0551
S315080011D4DBB2AABF05F56145535585F8003370BDE2
S315080011E4A824000800ED00E014ED00E0BFF34F8FDB
S315080011F40549064BCA6802F4E0621343CB60BFF3A1
S315080012044F8F00BFFDE700BF00ED00E00400FA05BC
S315080012140138B0F1807F0BD24FF0E023054A5861BC
S31508001224F02182F823100020072298611A6170477A
S315080012340120704700ED00E0204BDA68D00606D599
S315080012441F49CA6942F01002CA611022DA60DA68D4
S31508001254910606D51A49CA6942F00802CA612022CB
S31508001264DA60164BDA68520606D51549CA6942F099
S315080012740402CA614022DA60DA68100606D5104903
S31508001284CA6942F00202CA618022DA600B4BDA6844
S31508001294D10507D50A49CA6942F00102CA614FF461
S315080012A48072DA60DA68920706D50549CA6942F097
S315080012B42002CA610222DA60704700BF003C02407D
S315080012C40C00002038B500F17843B3F5002F044626
S315080012D40D460BD300F1604303F50843B3F5047FC9
S315080012E404D3094840F2BA21FFF7FAFD074B1A69F5
S315080012F422F440721A611A691A611A6942F00102E3
S315080013041A61257038BD00BFE3240008003C02407A
S3150800131438B500F17843B3F5002F04460D460BD3D0
S3150800132400F1604303F50843B3F5047F04D30A4880
S3150800133440F2A121FFF7D4FD084B1A6922F4407242
S315080013441A611A6942F480721A611A6942F0010232
S315080013541A61258038BD00BFE3240008003C02401A
S3150800136438B500F17843B3F5002F04460D460BD380
S3150800137400F1604303F50843B3F5047F04D30A4830
S315080013844FF42271FFF7ACFD084B1A6922F4407238
S315080013941A611A6942F400721A611A6942F0010262
S315080013A41A61256038BD00BFE3240008003C0240EA
S315080013B470B51D4600F17843B3F5002F044616466A
S315080013C40BD300F1604303F50843B3F5047F04D354
S315080013D40B4840F26621FFF783FD0A490B6923F49B
S315080013E440730B610B6943F440730B610B6943F05B
S315080013F401030B612660BFF36F8F656070BD00BF84
S31508001404E3240008003C0240064B1A69002ABFBFC1
S31508001414054A5A6002F188325A60BABF1869C00F81
S3150800142400207047003C024023016745034A1369BC
S3150800143443F0004313610020704700BF003C02409C
S31508001444114B70B500220446DA61FFF769FE0F4DA9
S315080014540646EB68DA030CD4EB68DB0744BF0123C2
S31508001464EB60E86810F4F97007D0FFF7E5FE012091
S3150800147403E0611CEDD00CB9032070BDFFF750FEE4
S31508001484801BA042E5D9F7E70C000020003C024087
S315080014942DE9F0411E4F98463B7E012B06460C4625
S315080014A4154632D0012303283B7603D91948A921C6
S315080014B4FFF716FD4CF25030FFF7C2FF68B986B93C
S315080014C4E9B22046FFF7FEFE4CF25030FFF7B8FFAC
S315080014D4114A136923F00103136100233B76BDE81F
S315080014E4F081012E04D1A9B22046FFF711FFEBE7DC
S315080014F4022E04D129462046FFF732FFE4E72A469E
S3150800150443462046FFF754FFDEE70220E7E700BF1D
S315080015140C000020E3240008003C0240032838B5E8
S3150800152404460D4604D90E4840F2B731FFF7D8FCF5
S31508001534012D04D00A484FF46E71FFF7D1FC094B0C
S315080015441A6922F440721A611A6942F004021A618D
S31508001554186940EA042040F48030186138BD00BF99
S315080015641D250008003C0240072838B505460C46E8
S3150800157404D9144840F2D631FFF7B2FC032C1DD91E
S31508001584104840F2D731FFF7ABFC4FF440740E4BCA
S315080015941A6922F440721A611A6922431A611A698D
S315080015A422F0F8021A61186940EAC50040F0020000
S315080015B418611A6942F480321A6138BDE5D02402EA
S315080015C4E5E700BF1D250008003C0240144B1A68D5
S315080015D491050FD51A6822F400721A601A6842F443
S315080015E400621A601A6822F400621A601A6842F4E1
S315080015F400721A600A4B1A6852050FD51A6822F443
S3150800160480621A601A6842F480521A601A6822F4D0
S3150800161480521A601A6842F480621A60704700BFE2
S31508001624003C02402DE9F843DFF8BC8098F81830EE
S31508001634012B04460F4651D0012388F81830036855
S31508001644012B03D92648A921FFF74AFC4CF250304E
S31508001654FFF7F6FE0546A8B94FF0FF333B6023684B
S31508001664012B15D16168207CFFF758FF4CF25030E6
S31508001674FFF7E6FE1B4A136923F0040305461361C4
S31508001684FFF7A4FF002388F818302846BDE8F88336
S31508001694D4E902231344013B072B03D91048C1217B
S315080016A4FFF71EFCA668DFF83C90D4E9022313442E
S315080016B4B342E5D9217C3046FFF756FF4CF2503049
S315080016C4FFF7BEFED9F8103023F0FA03C9F8103034
S315080016D410B13E600546D3E70136E6E70225D4E7AE
S315080016E41D250008003C02400C000020954B98423A
S315080016F42DE9F74F04460D4617D003F58063984243
S3150800170413D003F5806398420FD003F5806398429B
S315080017140BD003F58063984207D003F540639842DB
S3150800172403D08948AC21FFF7DBFB2B689AB212B1C8
S31508001734B3F5803F03D38448AD21FFF7D1FB6B682B
S31508001744B3F5041F12D000F2ED80B3F5881F0DD04F
S3150800175409D8032B0AD9113B012B07D97A48AE219C
S31508001764FFF7BEFB02E0B3F5901FF7D10027DFF8B9
S31508001774E491DFF8E4813E462B684FF0010B0BFA3F
S3150800178406FB0BEA030A3BEA030340F0C2806B68D4
S3150800179403F00303013B012B18D8EB68032B03D989
S315080017A46948C021FFF79CFBA2680323BB4022EAD1
S315080017B40302EB68BB401343A3606B686268C3F318
S315080017C4001322EA0B02B340134363606B6803F009
S315080017D40303032B32D0AB68022B03D95A48D12111
S315080017E4FFF77EFBE2680323BB4022EA0302AB68E9
S315080017F4BB401343E3606B6803F00303022B1DD15C
S315080018042B6963B1013B0E2B05D844F6FF3222FA45
S3150800181403F3DB0703D44C48DE21FFF761FBF20828
S3150800182404EB820206F00701106A89000F238B4035
S3150800183420EA03002B698B400343136220680323C1
S3150800184403FA07F220EA02006A6802EA0301B940C9
S31508001854014312F4403F21605BD03C494FF0000B32
S31508001864CDF804B0486C40F480404864496C01F4EF
S3150800187480410191019926F0030101F1804101F5A6
S315080018849C3106EA030C88684FEA8C0C4FF00F0E5D
S315080018940EFA0CFE20EA0E00DFF8A8E074454AD0DA
S315080018A444454AD00EF5006E744548D00EF5806E50
S315080018B4744504D0264B9C4214BF0723042303FA19
S315080018C40CF303438B60D9F808306FEA0A01D00297
S315080018D454BF0B404AEA0303C9F80830D9F80C3058
S315080018E4900254BF0B404AEA0303C9F80C30D9F8EE
S315080018F40430900354BF0B404AEA0303C9F8043082
S31508001904D9F80030D20354BF0B404AEA0303C9F896
S3150800191400300136102E07F102077FF42DAF03B00D
S31508001924BDE8F08FB3F5441F3FF420AF23F48013CA
S31508001934B3F5081F19E75B46C1E70123BFE702238E
S31508001944BDE700BF000002405A25000800380240DF
S3150800195400100240003C0140000402402DE9F84F03
S31508001964494B984204460E4618D003F580639842BC
S3150800197414D003F58063984210D003F58063984227
S315080019840CD003F58063984208D003F54063984267
S3150800199404D03E484FF49771FFF7A2FA3C4A002355
S315080019A44FF0010A4FF00F084FF0030B0AFA03FC35
S315080019B43CEA06000CEA060158D123F0030000F1BC
S315080019C4804000F59C3003F003078568BF0008FAD9
S315080019D407F909EA050E2C4DAC424CD005F580658D
S315080019E4AC424AD005F58065AC4248D005F5806519
S315080019F4AC4246D005F58065AC4214BF07250425DC
S31508001A04BD40754513D1156825EA01051560556865
S31508001A1425EA01055560D56825EA0105D560956866
S31508001A2425EA01059560816821EA09018160206833
S31508001A3459000BFA01F1DD0820EA010004EB8505DB
S31508001A44206003F007002F6A800008FA00F027EAEE
S31508001A5400072F62E06820EA0100E060606820EA77
S31508001A640C006060A06820EA0101A1600133102B14
S31508001A749CD1BDE8F88F0025C2E70125C0E70225F9
S31508001A84BEE70325BCE700BF000002405A2500084C
S31508001A94003C01402DE9F3410446002842D003687E
S31508001AA40F2B03D99948E621FFF71AFA2368DE07AC
S31508001AB418D423689D076ED42368190700F1C080DB
S31508001AC423685A0700F1E880A369022B04D98F48D2
S31508001AD440F2CD11FFF704FAA369002B40F05381B5
S31508001AE4002037E0636833F4803206D0B3F5A02FBC
S31508001AF403D08648EB21FFF7F3F9854B9A6802F081
S31508001B040C02042A07D09A6802F00C02082A0BD1A0
S31508001B145B68590208D57E4B1B689A03C9D5636866
S31508001B24002BC6D1012015E06368794DB3F5803FD3
S31508001B3413D12B6843F480332B60FFF7F1FA744E04
S31508001B44054633689B03B4D4FFF7EAFA401B6428B6
S31508001B54F7D9032002B0BDE8F081B3F5A02F04D16C
S31508001B642B6843F480232B60E3E72A6822F4803247
S31508001B742A602A6822F480222A60002BDDD1FFF726
S31508001B84CFFA06462B689F0393D5FFF7C9FA801B3D
S31508001B946428F7D9DDE7E368012B04D95B4840F2EA
S31508001BA41D11FFF79DF923691F2B04D957484FF4D4
S31508001BB48F71FFF795F9564B9A6812F00C0F07D0F8
S31508001BC49A6802F00C02082A11D15B685D020ED4E9
S31508001BD44F4A1368990702D5E368012BA2D1136803
S31508001BE4216923F0F80343EAC103136064E7E26852
S31508001BF4484BB2B101221A60FFF792FA444D0646E1
S31508001C042B689B0707D52B68226923F0F80343EA58
S31508001C14C2032B6050E7FFF783FA801B0228EFD92B
S31508001C2497E71A60FFF77CFA394E054633689F072B
S31508001C347FF542AFFFF774FA401B0228F6D988E706
S31508001C446369012B04D931484FF4AF71FFF748F99A
S31508001C546269304B82B10122C3F8802EFFF760FA1D
S31508001C642B4E0546736F9B073FF52AAFFFF758FAC5
S31508001C74401B0228F6D96CE7C3F8802EFFF750FA02
S31508001C84234E0546736F9F077FF51AAFFFF748FA89
S31508001C94401B0228F6D95CE7A368012B06D9052B55
S31508001CA404D01A484FF4C571FFF71AF9184B1A6C81
S31508001CB412F0805228D101921A6C42F080521A64AA
S31508001CC41B6C03F080530193019B0127124D2B686B
S31508001CD4D80523D5A3680E4D012B2FD12B6F43F0BE
S31508001CE401032B67FFF71CFA094E054641F28838AB
S31508001CF4336F9A0741D5002F3FF4E6AE044A136CB6
S31508001D0423F080531364DFE60027DFE793250008F2
S31508001D140038024000004742007000402B6843F434
S31508001D2480732B60FFF7FCF906462B68D905D1D4D6
S31508001D34FFF7F6F9801B0228F7D90AE7052B04D121
S31508001D442B6F43F004032B67C8E72A6F22F00102BE
S31508001D542A672A6F22F004022A67002BC2D1FFF7EA
S31508001D64DFF941F2883806462B6F9B07C3D5FFF780
S31508001D74D7F9801B4045F7D9EBE6FFF7D1F9401BA5
S31508001D844045B5D9E5E6524DAA6802F00C02082A80
S31508001D9473D0022B61D1E36933F4800304D04D4830
S31508001DA44FF4EB71FFF79CF8236A023B3D2B04D9E9
S31508001DB4484840F2D711FFF793F8636A323BB3F504
S31508001DC4BF7F04D943484FF4EC71FFF789F8A26A38
S31508001DD4082A04D84FF4AA73D340D80704D43D4834
S31508001DE440F2D911FFF77CF8E36A023B0D2B04D9BC
S31508001DF438484FF4ED71FFF773F8374B344E002229
S31508001E041A66FFF78DF90546336899011FD4D4E994
S31508001E1407321343626A2E4D43EA8213E26A43EA9F
S31508001E240263A26A5208013A43EA024373602A4BE0
S31508001E3401221A66FFF774F904462B689A013FF5DE
S31508001E444FAEFFF76DF9001B0228F6D981E6FFF7B6
S31508001E5467F9401B0228D7D97BE61F4B00221A666E
S31508001E64FFF75EF904462B689B017FF539AEFFF749
S31508001E7457F9001B0228F6D96BE6012B3FF452AE3C
S31508001E846B68E26903F4800191427FF44BAE216AE0
S31508001E9403F03F028A427FF445AE616A47F6C07290
S31508001EA41A40B2EB811F7FF43DAEA26A520803F4CE
S31508001EB44031013AB1EB024F7FF434AEE26A03F0E3
S31508001EC47063B3EB026F14BF0120002042E600BF23
S31508001ED4003802409325000800004742134908B514
S31508001EE48B6803F00C03042B1CD0082B1CD14A68FE
S31508001EF44B68496813F4800314BF0D480D48C1F3B1
S31508001F04881118BF002302F03F02A1FB0001FEF767
S31508001F145FF9064B5B68C3F3014301335B00B0FB0F
S31508001F24F3F008BD0248FCE70248FAE70038024025
S31508001F3400366E010024F4002DE9F0410D460446EE
S31508001F4410B90120BDE8F0810368013B0E2B04D9C2
S31508001F546D4840F25A21FEF7C3FF072D04D96A4893
S31508001F6440F25B21FEF7BCFF684B1A6802F00702D1
S31508001F74AA423DD32268960742D42368D9076CD46B
S31508001F84624B1A6802F00702AA4200F29B80236891
S31508001F945A0700F1A08023681B0718D5236933F470
S31508001FA480520CD023F40062B2F5A05F07D0B3F5D3
S31508001FB4C05F04D0544840F2CA21FEF791FF544A40
S31508001FC42169936823F4604343EAC1039360FFF7E6
S31508001FD485FF4F4B4F4A9B68C3F30313D35CD84022
S31508001FE44D4B18604D4B1868FFF750F80020A9E7C9
S31508001FF4EAB21A701B6803F00703AB42A1D1B9E72A
S31508002004434B12F0040F1EBF996841F4E0519960DE
S31508002014100742BF9A6842F460429A60A36833F094
S31508002024800212D023F02002902A0ED023F0400218
S31508002034A02A0AD023F01002C02A06D0F02B04D016
S31508002044314840F27E21FEF74BFF314AA168936876
S3150800205423F0F0030B4393608FE76368032B04D9DB
S31508002064294840F28521FEF73BFF6268284B012A7E
S315080020741ED11B6813F4003F3FF463AF244EB368C4
S3150800208423F003031343B360FFF74AF841F2883891
S315080020940746B368626803F00C03B3EB820F3FF498
S315080020A46FAFFFF73DF8C01B4045F2D9032049E757
S315080020B4911E01291B6802D813F0007FDCE713F090
S315080020C4020FD9E7EAB21A701B6803F00703AB429A
S315080020D47FF437AF5BE7E36833F480520CD023F41C
S315080020E40062B2F5A05F07D0B3F5C05F04D0064816
S315080020F440F2C321FEF7F4FE054AE168936823F427
S31508002104E0530B43936046E793250008003C0240DE
S315080021140038024044270008000000200800002078
S31508002124044B054A9B68C3F38223D35C034A1068AD
S31508002134D8407047003802403C27000800000020B9
S31508002144044B054A9B68C3F34233D35C034A1068BD
S31508002154D8407047003802403C2700080000002099
S3150800216438B54268414B9A42054604D9404840F678
S315080021749961FEF7B5FEEB6833F4005304D03C4886
S3150800218440F69A61FEF7ACFE2B6933F4806207D0F9
S31508002194B3F5C06F04D0364840F69B61FEF7A0FE3F
S315080021A46B694FF6F372134200D123B9304840F6EF
S315080021B49C61FEF795FE2A68E9681369286923F481
S315080021C440530B431361AB68D168034368690343FF
S315080021D4E86921F4164121F00C0103430B43D3604B
S315080021E45369A96923F440730B435361214B9A42FB
S315080021F403D003F580639A4224D1FFF7A1FFEA6965
S315080022041921B2F5004FD5E90043A0FB01011CD101
S31508002214DA184FF0000545EB0503FDF7D9FF6422EC
S31508002224B0FBF2F102FB1103DB003233B3FBF2F32A
S3150800223403F007025B0002EB011203F4F87313447C
S31508002244A36038BDFFF76CFFD9E79A009B0FFDF72B
S31508002254BFFF6422B0FBF2F102FB11031B01323308
S31508002264B3FBF2F303EB0113EAE700BFA037A000C0
S31508002274CB2500080010014010B50446002865D097
S3150800228481690368324A002954D093420CD0A2F5D6
S315080022944C42934208D002F55042934204D02D484A
S315080022A440F27311FEF71CFEA36933F4407304D09D
S315080022B44FF4BA712748FEF713FEA36833F4805324
S315080022C404D024484FF4BD71FEF70AFEE36933F4DB
S315080022D4004304D01F4840F27B11FEF701FE94F830
S315080022E4413003F0FF0223B984F840202046FEF764
S315080022F415FE2268242384F84130D36823F4005356
S31508002304D3602046FFF72CFF23681A6922F490420B
S315080023141A615A6922F02A025A61DA6842F40052AA
S31508002324DA6000202023606484F8413084F842305F
S31508002334606310BD9342C0D0074A9342BDD002F5EC
S3150800234450429342B9D04FF4BC71B3E70120F0E789
S3150800235400100140CB2500080044004010B504468F
S3150800236430B30368134A93420CD0A2F54C42934205
S3150800237408D002F55042934204D00F4840F2A621F1
S31508002384FEF7AEFD2268242384F84130D36823F48B
S3150800239400532046D360FEF719FE0020606484F8D3
S315080023A4400084F8410084F842002063606310BD4D
S315080023B40120FCE700100140CB25000810B50139BF
S315080023C40244904201D1002005E0037811F8014F38
S315080023D4A34201D0181B10BD0130F2E7024403469C
S315080023E4934200D1704703F8011BF9E770B50D4D08
S315080023F40D4C641BA4100026A64209D10B4D0C4CA7
S3150800240400F018F8641BA4100026A64205D170BD76
S3150800241455F8043B98470136EEE755F8043B9847C8
S315080024240136F2E75C2700085C2700085C270008E9
S3150800243460270008F8B500BFF8BC08BC9E4670477C
S31108002444F8B500BFF8BC08BC9E467047FF
S3150800245067E6096A85AE67BB72F36E3C3AF54FA527
S315080024607F520E518C68059BABD9831F19CDE05B53
S315080024700000000001000000060000000100000046
S3150800248002000000FFFFFFFF000000000000000040
S3150800249000FFFFFFFF00DEADBEEFCAFEBABE002199
S315080024A052411035014542002E2E2F447269766539
S315080024B072732F53544D3332463478785F48414C03
S315080024C05F4472697665722F5372632F73746D3326
S315080024D032663478785F68616C5F636F72746578AA
S315080024E02E63002E2E2F447269766572732F53540D
S315080024F04D3332463478785F48414C5F447269768A
S3150800250065722F5372632F73746D3332663478781D
S315080025105F68616C5F666C6173682E63002E2E2F90
S31508002520447269766572732F53544D333246347844
S31508002530785F48414C5F4472697665722F537263BF
S315080025402F73746D3332663478785F68616C5F66B2
S315080025506C6173685F65782E63002E2E2F4472694E
S31508002560766572732F53544D3332463478785F4804
S31508002570414C5F4472697665722F5372632F737488
S315080025806D3332663478785F68616C5F6770696F3F
S315080025902E63002E2E2F447269766572732F53545C
S315080025A04D3332463478785F48414C5F44726976D9
S315080025B065722F5372632F73746D3332663478786D
S315080025C05F68616C5F7263632E63002E2E2F447200
S315080025D069766572732F53544D3332463478785F73
S315080025E048414C5F4472697665722F5372632F7344
S315080025F0746D3332663478785F68616C5F756172C2
S31508002600742E6300982F8A4291443771CFFBC0B568
S31508002610A5DBB5E95BC25639F111F159A4823F929F
S31508002620D55E1CAB98AA07D8015B8312BE853124F8
S31508002630C37D0C55745DBE72FEB1DE80A706DC9BB9
S3150800264074F19BC1C1699BE48647BEEFC69DC10F65
S31508002650CCA10C246F2CE92DAA84744ADCA9B05CA1
S31508002660DA88F97652513E986DC631A8C82703B064
S31508002670C77F59BFF30BE0C64791A7D55163CA0672
S3150800268067292914850AB72738211B2EFC6D2C4D7E
S31508002690130D385354730A65BB0A6A762EC9C2816C
S315080026A0852C7292A1E8BFA24B661AA8708B4BC202
S315080026B0A3516CC719E892D1240699D685350EF42C
S315080026C070A06A1016C1A419086C371E4C774827E3
S315080026D0B5BCB034B30C1C394AAAD84E4FCA9C5B59
S315080026E0F36F2E68EE828F746F63A5781478C884AA
S315080026F00802C78CFAFFBE90EB6C50A4F7A3F9BE8C
S31508002700F27871C60040000800400000008000080A
S315080027100040000000C0000800400000000001085A
S315080027200000010000000208000002000000040882
S315080027300000020000000608000002000000000079
S315080027400102030400000000000000000102030467
S309080027500607080959
S30D08002754B0DAFF7F0100000066
S3090800275CB9010008A9
S3090800276095010008C9
S315080027640024F4000100000010000000000000002E
S315080027740000000000000000000000000100000046
S311080027840000000000000000000000003B
S7050800103DA5
