S01A0000426F6F744F6E6C79426F6F744C6F616465722E73726563E9
S3150800000000800120F1110008C9110008CB11000871
S31508000010CD110008CF110008D1110008000000001A
S31508000020000000000000000000000000D3110008D6
S31508000030D511000800000000D7110008D9110008E2
S315080000404112000841120008411200084112000836
S315080000504112000841120008411200084112000826
S315080000604112000841120008411200084112000816
S315080000704112000841120008411200084112000806
S315080000804112000841120008411200080000000051
S3150800009000000000000000000000000041120008F7
S315080000A041120008411200084112000841120008D6
S315080000B041120008411200084112000841120008C6
S315080000C041120008411200084112000841120008B6
S315080000D04112000841120008411200080000000001
S315080000E041120008411200084112000800000000F1
S315080000F00000000000000000000000004112000897
S3150800010000000000411200084112000841120008D0
S3150800011000000000000000000000000000000000D1
S315080001204112000841120008411200084112000855
S315080001304112000800000000000000000000000056
S315080001400000000000000000000000004112000846
S315080001504112000841120008411200084112000825
S3150800016041120008411200080000000000000000CB
S315080001700000000000000000000000000000000071
S315080001800000000041120008000000000000000006
S309080001904112000802
S3150800019410B5054C237833B9044B13B10448AFF3AF
S315080001A400800123237010BD2C00002000000000ED
S315080001B42026000808B5034B1BB103490348AFF3CF
S315080001C4008008BD0000000030000020202600083A
S315080001D453B94AB9002908BF00281CBF4FF0FF319C
S315080001E44FF0FF3000F088B9ADF1080C6DE904CE84
S315080001F400F006F8DDF804E0DDE9022304B07047F0
S315080002042DE9F047089D0F4604468C46002B48D135
S315080002148A42164661D9B2FA82F34BB1C3F1200277
S3150800022401FA03FC20FA02F29E4042EA0C0C9C40B6
S315080002344FEA164EB7B2BCFBFEF1220C0EFB11CCEC
S3150800024442EA0C4201FB07F0904209D9B21801F1BF
S31508000254FF3C80F0EE80904240F2EB800239324453
S31508000264121AA4B2B2FBFEF00EFB102244EA0244B0
S3150800027400FB07F7A74209D9341900F1FF3280F0C9
S31508000284DA80A74240F2D7803444023840EA014073
S31508000294E41B00211DB1DC400023C5E90043BDE889
S315080002A4F0878B4206D90DB1C5E90001002108463D
S315080002B4BDE8F087B3FA83F1002948D1BB4202D3DB
S315080002C4824200F20781841A67EB030201209446EE
S315080002D4002DE4D0C5E9004CE1E7002A00F092803D
S315080002E4B2FA82F3002B40F0A8808A1A4FEA164E17
S315080002F41FFA86FC0121200CB2FBFEF70EFB17221F
S3150800030440EA02420CFB07F0904207D9B21807F1FB
S31508000314FF3802D2904200F2E2804746121AA4B28B
S31508000324B2FBFEF00EFB102244EA02440CFB00FC6E
S31508000334A44507D9341900F1FF3202D2A44500F2C4
S31508000344CB801046A4EB0C0440EA0740A2E7C1F1AF
S3150800035420068B4022FA06FC4CEA030C07FA01F441
S3150800036420FA06F3F7404FEA1C49234300FA01F83A
S315080003741FFA8CFEB7FBF9F01C0C09FB107744EA4C
S31508000384074400FB0EF7A74202FA01F20AD91CEB4E
S31508000394040400F1FF3A80F09B80A74240F298805B
S315080003A402386444E41B9FB2B4FBF9F309FB134413
S315080003B447EA044403FB0EFEA64509D91CEB0404CC
S315080003C403F1FF3780F08280A6457FD9023B644457
S315080003D443EA0040A4EB0E04A0FB02E7BC427346C2
S315080003E4B94663D360D05DB1B8EB030264EB090484
S315080003F404FA06F622FA01F31E43CC40C5E9006462
S3150800040400214CE76208480842EAC1710B0C43EA2A
S3150800041400438AB242EA0342B3FBF6F1E407B44660
S315080004243746B6461F23B0FBF6F0D21B41EA004115
S3150800043461E7614614E7104628E7C3F1200120FA6C
S3150800044401F29E4027FA01F19F403A434FEA164EBD
S315080004541FFA86FCB1FBFEF70EFB1710110C41EAD6
S31508000464004107FB0CF8884504FA03F43AD97118D5
S3150800047407F1FF3001D288451FD8A1EB0801B1FB6B
S31508000484FEF808FB0CF70EFB181192B242EA014279
S31508000494BA422FD2B21808F1FF31C6D2BA42C4D230
S315080004A4A8F102013244C0E7F0459CD2BEEB020330
S315080004B467EB0C070138B94695E7A6EB08084144EB
S315080004C4B81EB1FBFEF808FB0CF7DCE73B467FE7F2
S315080004D4504667E70846FBE63444023832E7023FEB
S315080004E432441BE7A1EB08013846B1FBFEF808FBCA
S315080004F40CF7C8E7414698E7704700BF2DE9F04F67
S315080005049C4DDFF88CC2DFF88C82E7B083460791EE
S315080005140D920FCD0EAC0FC495E80F0084E80F00BA
S31508000524079BCDF820B023F03F030A935B440C9352
S31508000534914BCDE9013C914B0093914B0393914B1D
S31508000544059303F1FE43A3F5E823A3F2ED430493CD
S315080005548D4B069300220C9B0899994240F07881AA
S31508000564079B0A9C03F03F035C44002A00F0F481CD
S315080005740299149101991391009912910399119171
S315080005840599109104990F910699CDF854800E9106
S3150800059416A90D4600229A4202F1010040F0EB81A9
S315080005A416AC80253828A554034640F28C802318B7
S315080005B40022225026A8C3F8032005460B465E7877
S315080005C41C78360446EA0466DC7834439E7801329D
S315080005D444EA0624102A45F8044B03F10403EED131
S315080005E44468866B03464FEAB445043085EAF41535
S315080005F485EAD4051C68036A1C444FEAF64383EA71
S3150800060476432C4483EA962301321C44402AC46365
S31508000614E6D15E4B0993DDE901C7DDE90465039B71
S315080006240098069C0893C2464FF0000E0DF19809EF
S31508000634099A52F8043B09924FEAF02282EAB01268
S3150800064482EA70620A9259F82E2003EB020B0A9A80
S3150800065427EA00035A4400EA0C0B83EA0B031A44FC
S31508000664524486EA05034FEA743A06EA050B8AEA0F
S31508000674B40A234083EA0B038AEAB45A9A44089BC9
S3150800068408950EF1010E1344BEF1400F9B460AEB82
S315080006940203BA4640F07481069A1A44049B0692E9
S315080006A423440493059B33440593039B2B440393E8
S315080006B4009B5B440093019B03440193029B6344A0
S315080006C40293B84400230022382B40F06081079B2C
S315080006D426AE5F0FDA000023C3F12005A3F1200438
S315080006E422FA03F007FA05F5284327FA04F408332F
S315080006F42043402B06F8010DEED126AA1446002005
S315080007044D780B782D0445EA0365CB782B438D7811
S31508000714013043EA0523102844F8043B01F1040197
S31508000724EED15168956B13464FEAB144043284EA14
S31508000734F11484EAD1041968136A19444FEAF54393
S3150800074483EA7543214483EA9523013019444028F2
S31508000754D163E6D1DDE90176DDE904540B4B009952
S31508000764DDF80CE006980793C1464FF0000C0DF12E
S31508000774980B11E0382600088C68059B7F520E51A9
S315080007843AF54FA572F36E3C67E6096AEC2700084A
S31508000794ABD9831F19CDE05B079A52F8043B07923D
S315080007A44FEAF12282EAB11282EA716208925BF890
S315080007B42C2003EB020A089A26EA0103524401EAAA
S315080007C4070A83EA0A031A444A4485EA04034FEAF1
S315080007D4703905EA040A89EAB009034089EAB05976
S315080007E483EA0A030CF1010C4B44BCF1400F02EBFB
S315080007F40E0A1344A646B14640F0CD80069A134421
S315080008040E93049B0D9A1844059B0F901D44039B55
S3150800081410951C44009B119453441293019B19444C
S31508000824029B13911F444644149715960EAB02F186
S31508000834200053F8041BD1700C0E14700C0C547061
S315080008440C0A947004328242F3D167B0BDE8F08F83
S31508000854089926AA104601F1400451F8043B1BBA2C
S31508000864A14240F8043BF8D1089110255068966BCC
S3150800087413464FEAB044043284EAF01484EAD004F6
S315080008841868136A18444FEAF64383EA7643204401
S3150800089483EA962301351844402DD063E6D1414BAB
S315080008A40B93DDE901C7DDE90465039B0098069C03
S315080008B40993C1464FF0000E0B9A26A952F8043B39
S315080008C451F82E100B924FEAF02282EAB01203EB8B
S315080008D4010A82EA7062524427EA000300EA0C0A13
S315080008E483EA0A031A444A4486EA05034FEA743932
S315080008F40999099506EA050A89EAB409234089EAA1
S31508000904B45983EA0A030EF1010E4B441144BEF1AD
S31508000914400F8A461344B94617D1069A1A44049BCB
S31508000924069223440493059B33440593039B2B4463
S315080009340393009B0B440093019B03440193029B7E
S3150800094463440293B844012205E66746354684465D
S31508000954264650461C46AFE7134A1449144D154E0D
S31508000964154FDFF86080CDE90412144A8DE8E400D7
S31508000974134A06920CE6125D05F8012B02460AE6AE
S31508000984674635468446264658461C4650E616A803
S31508000994C254013398E63E462C460F460546514650
S315080009A41846F9E6EC27000872F36E3C85AE67BB79
S315080009B48C68059BABD9831F3AF54FA57F520E5118
S315080009C467E6096A19CDE05B10B594B010220021D8
S315080009D40AA801F0E9FD1422002103A801F0E4FDA8
S315080009E4204B002101911A6C42F080521A641B6C48
S315080009F41D4A03F080530193019B0291136823F463
S31508000A04404343F400431360136803F440430293DA
S31508000A14029B01224FF480330224CDE908234FF4C4
S31508000A248003CDE90E430C214823CDE9101308A809
S31508000A3407231294139301F013F908B172B6FEE76B
S31508000A440F23CDE903344FF48053CDE906300590DE
S31508000A54214603A801F056FB08B172B6FEE714B0A6
S31508000A6410BD00BF00380240007000402DE98048E0
S31508000A7400249DB000F008FCFFF7A6FFCDE9164454
S31508000A847B4B0A9418941A6B7A4842F004021A6348
S31508000A941A6B02F004020A920A9A0B941A6B42F031
S31508000AA480021A631A6B02F080020B920B9A0C945A
S31508000AB41A6B42F001021A631A6B02F001020C92D5
S31508000AC40C9A0D941A6B42F002021A631A6B02F01E
S31508000AD402020D920D9A0E941A6B42F008021A63DA
S31508000AE41B6B03F008030E930E9B4FF400554FF44B
S31508000AF4041314A9CDE9145300F0E0FE032541F6C6
S31508000B04FF735C48169414A9CDE9143500F0D6FE93
S31508000B1449F6F3135848169414A9CDE9143500F088
S31508000B24CDFE4FF2F7735548169414A9CDE914353A
S31508000B3400F0C4FE04235248169414A9CDE91435CA
S31508000B4400F0BCFE4F4A504B13604FF4E1360C25B7
S31508000B541046C2E90164C2E90554D4601461D4613B
S31508000B6401F070FC034608B172B6FEE74748484AE6
S31508000B74C0E90233C0E90026C0E90435C0E90633F2
S31508000B8401F060FC08B172B6FEE7424D424F434994
S31508000B940822284601F0F8FC002847D108224049D3
S31508000BA4A81801F0F1FC002840D12C6A04F1784316
S31508000BB4A3F58043B3F5F82F38D204F1774303F548
S31508000BC47C03B3F5003F31D36B6A0193013BB3F55C
S31508000BD4003F2BD2334B9C4242D303F580439C42BD
S31508000BE440D3314B9C423FD903F580339C423DD9CF
S31508000BF403F500339C428CBF072305230122CDE964
S31508000C041132002002231393CDE90F0200F0E4FC0D
S31508000C14F323FB60FB68D903FCD407A90FA800F0EB
S31508000C24E9FD0290002845D000F0E8FC1F4B083582
S31508000C349D42ACD11E4E4FF00008D6E90053382722
S31508000C4401932C46019A07F120039A4280F0768193
S31508000C5408F10108B8F1070F06F10806EDD1FEE719
S31508000C640123CBE70223C9E70323C7E70423C5E720
S31508000C740038024000080240000002400004024016
S31508000C84000C024048100020004400409010002048
S31508000C940010014000000408003C02407E260008BB
S31508000CA48726000800800008FFFF0008B0FF050833
S31508000CB4EC2800089C4BFA68D20301D5013BFAD10B
S31508000CC4F323FB603B6923F001033B61BFF34F8FBA
S31508000CD464230893089B5A1E0892002B40F0B88098
S31508000CE43B69002B01DA00F077FC236801339BD1BA
S31508000CF46368013398D1660796D18C4B1A6822F437
S31508000D0400721A601A6842F400621A601A6822F4B9
S31508000D1400621A601A6822F480721A60BFF34F8F51
S31508000D24BFF36F8F1B69002B01DA00F055FC7E4A6E
S31508000D347E4BD968C80301D5013AFAD11A6922F05B
S31508000D4401021A61F322DA60BFF34F8FBFF36F8F84
S31508000D54C8230993099B5A1E0992002B7AD1734B0F
S31508000D64DA68D1033FF560AF1E6916F001067FF411
S31508000D745BAFA246019B6E48314606F58056B342E0
S31508000D8434BFA3EB01094FF4805901F100614A46C7
S31508000D9401F5802101F034FCBFF34F8F09F00303FA
S31508000DA4039329F003035344DFF884810493D34659
S31508000DB40120049B5B4572D008F1040800284BD136
S31508000DC40020019BB34203D90AF5805A0028D1D1E1
S31508000DD4BFF34F8F554A116841F4007111601168C9
S31508000DE441F48071116000283FF41EAF05F1774184
S31508000DF401F57C010E1972B600F072FA4FF0FF3253
S31508000E04002306F12801022000F02AFC044638B91A
S31508000E140022002306F12C01022000F021FC029096
S31508000E2400F065FA62B6029B1C43E4B2002C7FF418
S31508000E34FBAE404E0FCE14AC0FC43368236007A92B
S31508000E4414A800F0D7FC00F0D9FB00F0B7FAEDE6D9
S31508000E5400BF3FE700BF7DE718F8022C18F8033CEB
S31508000E64120442EA032218F8043C1A4318F8013C0F
S31508000E7442EA0362059272B600F032FA059A002332
S31508000E845946022000F0ECFB059000F030FA62B6F1
S31508000E940598B0FA80F040090BF1040B89E7039B27
S31508000EA4002B8ED000288BD029F0030819F0020FE6
S31508000EB408EB0A0B24D01E4A1F4B12F8089013F8A5
S31508000EC4083049EA032972B600F00AFA4A460023AA
S31508000ED45946012000F0C4FB814600F008FA62B6C0
S31508000EE4039BB9FA89F0032B4FEA50107FF469AFD4
S31508000EF4B9F1000F7FF464AF0BF1020B08F1020895
S31508000F040B4B13F8088072B600F0EAF90023424640
S31508000F145946184600F0A4FB804600F0E8F962B684
S31508000F24B8FA88F040094CE7A1860100003C024063
S31508000F34480000205826000849000020474908228E
S31508000F44204601F021FB04F10809002840F08380BB
S31508000F5443490822484601F017FB00287BD141493A
S31508000F64082204F1280001F00FFB002873D13E493A
S31508000F74082204F1300001F007FB00286BD114AAFB
S31508000F8439462846FFF7BAFA04F1370214AB573440
S31508000F9413F8011B12F8010F88425CD19442F7D169
S31508000FA42C6804F16043B3F5C03F54D8D5F804B0AF
S31508000FB41BF0010F4FD02D4801F0B6FA2C4801F06A
S31508000FC4B3FA2C4843F6FF7100F0AEFD2A4849F6F9
S31508000FD4F37100F0A9FD29484FF2F77100F0A4FD5A
S31508000FE42748042100F0A0FD264B01221A60264B4F
S31508000FF41A689207FCD59A6822F003029A609A68DE
S3150800100412F00C02FBD11F490A661A6822F48032D0
S315080010141A601A6822F480221A6000F05BF91A4AE8
S31508001024824611688B0307D500F054F9A0EB0A0031
S31508001034B0F57A7F144AF4D9144A136823F00703DF
S31508001044136072B6BFF34F8FBFF36F8F104B9D605B
S3150800105484F30888D8474C460837F3E57E26000803
S31508001064872600086C2600087526000890100020BC
S315080010744810002000080240000002400004024014
S31508001084000C02400000474200380240003C02407F
S3150800109400ED00E07047000082B00C4B002100917F
S315080010A45A6C42F480425A645A6C02F480420092A2
S315080010B4009A01911A6C42F080521A641B6C03F070
S315080010C480530193019B02B0704700BF0038024069
S315080010D410B514228AB0044600210DEB020001F073
S315080010E463FA2368224A934224D1224B00210191B0
S315080010F45A6C42F010025A645A6C02F010020192B9
S31508001104019A02911A6B42F001021A631B6B03F0EF
S3150800111401030293029B4FF4C0610223CDE9051330
S315080011240323089307231448099305A900F0C6FB6B
S315080011340AB010BD114A9342FAD10E4B002103910D
S315080011441A6C42F400321A641A6C02F400320392DE
S31508001154039A04911A6B42F001021A631B6B03F09B
S3150800116401030493049B0C220223CDE90523D9E742
S3150800117400100140003802400000024000440040CC
S3150800118403680D4A93420AD102F594324FF4C061BA
S31508001194536C23F010035364084800F0C5BC084A8E
S315080011A4934207D102F5FA320C21136C23F4003367
S315080011B41364F1E7704700BF0010014000000240C5
S315080011C400440040FEE7FEE7FEE7FEE7FEE7704759
S315080011D47047704700F072B8034AD2F8883043F46F
S315080011E47003C2F88830704700ED00E0DFF834D0A9
S315080011F4FFF7F2FF0C480D490D4A002302E0D458C4
S31508001204C4500433C4188C42F9D30A4A0A4C00233E
S3150800121401E013600432A242FBD301F0CDF9FFF7D3
S3150800122425FC704700800120000000202C000020C7
S315080012344C2900082C000020DC100020FEE70000E2
S3150800124438B50E4B1A784FF47A73B3FBF2F30C4A9B
S3150800125405461068B0FBF3F000F0C2F8044658B926
S315080012640F2D09D8024629464FF0FF3000F064F8DE
S31508001274044B20461D6038BD0120FCE7040000200D
S31508001284000000200800002008B50B4B1A6842F439
S3150800129400721A601A6842F480621A601A6842F484
S315080012A480721A60032000F029F80020FFF7C8FFAF
S315080012B4FFF7F2FE002008BD003C0240034A044B37
S315080012C411681B780B441360704700BFD8100020C0
S315080012D404000020014B1868704700BFD81000208E
S315080012E44FF0E022136923F00203136170474FF0AD
S315080012F4E022136943F0020313617047C31E042BEB
S3150800130410B5044603D90A489021FFF7C3FE0949D4
S31508001314CA6822F4E0622302120403F4E063120C9E
S31508001324134343F0BF6343F40033CB6010BD00BFDF
S315080013349026000800ED00E00F2A70B505460C4615
S31508001344164603D91A48A821FFF7A4FE0F2C03D979
S315080013541748A921FFF79EFE164BD968C1F3022147
S31508001364C1F107030A1D042B28BF0423062A4FF0DC
S31508001374FF328CBF0339002102FA03F324EA03037C
S315080013848A4026EA02068B40002D43EA0603ACBFD0
S3150800139405F16045084A4FEA0313B8BF05F00F057F
S315080013A4DBB2AABF05F56145535585F8003370BD10
S315080013B49026000800ED00E014ED00E0BFF34F8F1F
S315080013C40549064BCA6802F4E0621343CB60BFF3CF
S315080013D44F8F00BFFDE700BF00ED00E00400FA05EB
S315080013E40138B0F1807F0BD24FF0E023054A5861EB
S315080013F4F02182F823100020072298611A617047A9
S315080014040120704700ED00E0204BDA68D00606D5C7
S315080014141F49CA6942F01002CA611022DA60DA6802
S31508001424910606D51A49CA6942F00802CA612022F9
S31508001434DA60164BDA68520606D51549CA6942F0C7
S315080014440402CA614022DA60DA68100606D5104931
S31508001454CA6942F00202CA618022DA600B4BDA6872
S31508001464D10507D50A49CA6942F00102CA614FF48F
S315080014748072DA60DA68920706D50549CA6942F0C5
S315080014842002CA610222DA60704700BF003C0240AB
S315080014940C00002038B500F17843B3F5002F044654
S315080014A40D460BD300F1604303F50843B3F5047FF7
S315080014B404D3094840F2BA21FFF7ECFD074B1A6931
S315080014C422F440721A611A691A611A6942F0010211
S315080014D41A61257038BD00BFCB260008003C0240BF
S315080014E438B500F17843B3F5002F04460D460BD3FF
S315080014F400F1604303F50843B3F5047F04D30A48AF
S3150800150440F2A121FFF7C6FD084B1A6922F440727E
S315080015141A611A6942F480721A611A6942F0010260
S315080015241A61258038BD00BFCB260008003C02405E
S3150800153438B500F17843B3F5002F04460D460BD3AE
S3150800154400F1604303F50843B3F5047F04D30A485E
S315080015544FF42271FFF79EFD084B1A6922F4407274
S315080015641A611A6942F400721A611A6942F0010290
S315080015741A61256038BD00BFCB260008003C02402E
S3150800158470B51D4600F17843B3F5002F0446164698
S315080015940BD300F1604303F50843B3F5047F04D382
S315080015A40B4840F26621FFF775FD0A490B6923F4D7
S315080015B440730B610B6943F440730B610B6943F089
S315080015C401030B612660BFF36F8F656070BD00BFB2
S315080015D4CB260008003C0240064B1A69002ABFBF06
S315080015E4054A5A6002F188325A60BABF1869C00FB0
S315080015F400207047003C024023016745034A1369EB
S3150800160443F0004313610020704700BF003C0240CA
S31508001614114B70B500220446DA61FFF75BFE0F4DE5
S315080016240646EB68DA030CD4EB68DB0744BF0123F0
S31508001634EB60E86810F4F97007D0FFF7E5FE0120BF
S3150800164403E0611CEDD00CB9032070BDFFF742FE20
S31508001654801BA042E5D9F7E70C000020003C0240B5
S315080016642DE9F0411E4F98463B7E012B06460C4653
S31508001674154632D0012303283B7603D91948A921F4
S31508001684FFF708FD4CF25030FFF7C2FF68B986B978
S31508001694E9B22046FFF7FEFE4CF25030FFF7B8FFDA
S315080016A4114A136923F00103136100233B76BDE84D
S315080016B4F081012E04D1A9B22046FFF711FFEBE70A
S315080016C4022E04D129462046FFF732FFE4E72A46CC
S315080016D443462046FFF754FFDEE70220E7E700BF4C
S315080016E40C000020CB260008003C0240032838B52D
S315080016F404460D4604D90E4840F2B731FFF7CAFC32
S31508001704012D04D00A484FF46E71FFF7C3FC094B48
S315080017141A6922F440721A611A6942F004021A61BB
S31508001724186940EA042040F48030186138BD00BFC7
S3150800173405270008003C0240072838B505460C462C
S3150800174404D9144840F2D631FFF7A4FC032C1DD95A
S31508001754104840F2D731FFF79DFC4FF440740E4B06
S315080017641A6922F440721A611A6922431A611A69BB
S3150800177422F0F8021A61186940EAC50040F002002E
S3150800178418611A6942F480321A6138BDE5D0240218
S31508001794E5E700BF05270008003C0240144B1A6819
S315080017A491050FD51A6822F400721A601A6842F471
S315080017B400621A601A6822F400621A601A6842F40F
S315080017C400721A600A4B1A6852050FD51A6822F471
S315080017D480621A601A6842F480521A601A6822F4FF
S315080017E480521A601A6842F480621A60704700BF11
S315080017F4003C02402DE9F843DFF8BC8098F818301D
S31508001804012B04460F4651D0012388F81830036883
S31508001814012B03D92648A921FFF73CFC4CF250308A
S31508001824FFF7F6FE0546A8B94FF0FF333B60236879
S31508001834012B15D16168207CFFF758FF4CF2503014
S31508001844FFF7E6FE1B4A136923F0040305461361F2
S31508001854FFF7A4FF002388F818302846BDE8F88364
S31508001864D4E902231344013B072B03D91048C121A9
S31508001874FFF710FCA668DFF83C90D4E9022313446A
S31508001884B342E5D9217C3046FFF756FF4CF2503077
S31508001894FFF7BEFED9F8103023F0FA03C9F8103062
S315080018A410B13E600546D3E70136E6E70225D4E7DC
S315080018B405270008003C02400C000020944B98427F
S315080018C42DE9F74F04460D4617D003F58063984271
S315080018D413D003F5806398420FD003F580639842CA
S315080018E40BD003F58063984207D003F5406398420A
S315080018F403D08848AC21FFF7CDFB2B689AB212B106
S31508001904B3F5803F03D38348AD21FFF7C3FB6B6868
S31508001914B3F5041F12D000F2EC80B3F5881F0DD07E
S3150800192409D8032B0AD9113B012B07D97948AE21CB
S31508001934FFF7B0FB02E0B3F5901FF7D10027DFF8F5
S31508001944E091DFF8E0813E462B684FF0010B0BFA75
S3150800195406FB0BEA030A3BEA030340F0C1806B6803
S3150800196403F00302013A012A18D8EB68032B03D9BA
S315080019746848C021FFF78EFBA2680323BB4022EA0E
S315080019840302EB68BB401343A3606B686168C3F347
S31508001994001221EA0B01B2400A43626003F0030312
S315080019A4032B32D0AB68022B03D95A48D121FFF74F
S315080019B471FBE2680323BB4022EA0302AB68BB401F
S315080019C41343E3606B6803F00303022B1DD12B69F1
S315080019D463B1013B0E2B05D844F6FF3222FA03F312
S315080019E4DB0703D44B48DE21FFF754FBF20804EB6C
S315080019F4820206F00701106A89000F238B4020EA49
S31508001A0403002B698B40034313622068032303FAFC
S31508001A1407F220EA02006A6802EA0301B9400143B0
S31508001A2412F4403F21605BD03B494FF0000BCDF8E0
S31508001A3404B0486C40F480404864496C01F4804121
S31508001A440191019926F0030101F1804101F59C31C8
S31508001A5406EA030C88684FEA8C0C4FF00F0E0EFA50
S31508001A640CFE20EA0E00DFF8A8E074454AD0444587
S31508001A744AD00EF5006E744548D00EF5806E74454E
S31508001A8404D0264B9C4214BF0723042303FA0CF301
S31508001A9403438B60D9F808306FEA0A01D00254BFB1
S31508001AA40B404AEA0303C9F80830D9F80C30900207
S31508001AB454BF0B404AEA0303C9F80C30D9F804307A
S31508001AC4900354BF0B404AEA0303C9F80430D9F813
S31508001AD40030D20354BF0B404AEA0303C9F8003066
S31508001AE40136102E07F102077FF42EAF03B0BDE8C6
S31508001AF4F08FB3F5441F3FF421AF23F48013B3F5F5
S31508001B04081F1AE75B46C1E70123BFE70223BDE7BF
S31508001B140000024042270008003802400010024034
S31508001B24003C0140000402402DE9F84F494B984215
S31508001B3404460E4618D003F58063984214D003F57C
S31508001B448063984210D003F5806398420CD003F55D
S31508001B548063984208D003F54063984204D03E480F
S31508001B644FF49771FFF796FA3C4A00234FF0010A9F
S31508001B744FF00F084FF0030B0AFA03FC3CEA060081
S31508001B840CEA060158D123F0030000F1804000F561
S31508001B949C3003F003078568BF0008FA07F909EAC9
S31508001BA4050E2C4DAC424CD005F58065AC424AD0A6
S31508001BB405F58065AC4248D005F58065AC4246D04B
S31508001BC405F58065AC4214BF07250425BD40754557
S31508001BD413D1156825EA01051560556825EA010536
S31508001BE45560D56825EA0105D560956825EA010595
S31508001BF49560816821EA09018160206859000BFA19
S31508001C0401F1DD0820EA010004EB8505206003F0F4
S31508001C1407002F6A800008FA00F027EA00072F62F7
S31508001C24E06820EA0100E060606820EA0C00606071
S31508001C34A06820EA0101A1600133102B9CD1BDE8FC
S31508001C44F88F0025C2E70125C0E70225BEE703256C
S31508001C54BCE700BF0000024042270008003C0140E0
S31508001C642DE9F3410446002842D003680F2B03D913
S31508001C749948E621FFF70EFA2368DE0718D4236885
S31508001C849D076ED42368190700F1C08023685A0794
S31508001C9400F1E880A369022B04D98F4840F2CD11DC
S31508001CA4FFF7F8F9A369002B40F05381002037E0C9
S31508001CB4636833F4803206D0B3F5A02F03D0864880
S31508001CC4EB21FFF7E7F9854B9A6802F00C02042A20
S31508001CD407D09A6802F00C02082A0BD15B685902ED
S31508001CE408D57E4B1B689A03C9D56368002BC6D1F1
S31508001CF4012015E06368794DB3F5803F13D12B684D
S31508001D0443F480332B60FFF7E5FA744E05463368CF
S31508001D149B03B4D4FFF7DEFA401B6428F7D90320E3
S31508001D2402B0BDE8F081B3F5A02F04D12B6843F4C3
S31508001D3480232B60E3E72A6822F480322A602A6823
S31508001D4422F480222A60002BDDD1FFF7C3FA064667
S31508001D542B689F0393D5FFF7BDFA801B6428F7D930
S31508001D64DDE7E368012B04D95B4840F21D11FFF750
S31508001D7491F923691F2B04D957484FF48F71FFF73C
S31508001D8489F9564B9A6812F00C0F07D09A6802F034
S31508001D940C02082A11D15B685D020ED44F4A1368F7
S31508001DA4990702D5E368012BA2D11368216923F0A8
S31508001DB4F80343EAC103136064E7E268484BB2B127
S31508001DC401221A60FFF786FA444D06462B689B07DC
S31508001DD407D52B68226923F0F80343EAC2032B606C
S31508001DE450E7FFF777FA801B0228EFD997E71A60BE
S31508001DF4FFF770FA394E054633689F077FF542AFF9
S31508001E04FFF768FA401B0228F6D988E76369012BAD
S31508001E1404D931484FF4AF71FFF73CF96269304B86
S31508001E2482B10122C3F8802EFFF754FA2B4E0546D9
S31508001E34736F9B073FF52AAFFFF74CFA401B02283E
S31508001E44F6D96CE7C3F8802EFFF744FA234E054605
S31508001E54736F9F077FF51AAFFFF73CFA401B0228FA
S31508001E64F6D95CE7A368012B06D9052B04D01A48D2
S31508001E744FF4C571FFF70EF9184B1A6C12F080521D
S31508001E8428D101921A6C42F080521A641B6C03F032
S31508001E9480530193019B0127124D2B68D80523D53E
S31508001EA4A3680E4D012B2FD12B6F43F001032B672B
S31508001EB4FFF710FA094E054641F28838336F9A0738
S31508001EC441D5002F3FF4E6AE044A136C23F0805341
S31508001ED41364DFE60027DFE77B27000800380240A3
S31508001EE400004742007000402B6843F480732B605F
S31508001EF4FFF7F0F906462B68D905D1D4FFF7EAF9B6
S31508001F04801B0228F7D90AE7052B04D12B6F43F067
S31508001F1404032B67C8E72A6F22F001022A672A6F8F
S31508001F2422F004022A67002BC2D1FFF7D3F941F243
S31508001F34883806462B6F9B07C3D5FFF7CBF9801B5A
S31508001F444045F7D9EBE6FFF7C5F9401B4045B5D937
S31508001F54E5E6524DAA6802F00C02082A73D0022B51
S31508001F6461D1E36933F4800304D04D484FF4EB712F
S31508001F74FFF790F8236A023B3D2B04D9484840F200
S31508001F84D711FFF787F8636A323BB3F5BF7F04D9E5
S31508001F9443484FF4EC71FFF77DF8A26A082A04D87F
S31508001FA44FF4AA73D340D80704D43D4840F2D91154
S31508001FB4FFF770F8E36A023B0D2B04D938484FF44F
S31508001FC4ED71FFF767F8374B344E00221A66FFF7B0
S31508001FD481F90546336899011FD4D4E907321343B6
S31508001FE4626A2E4D43EA8213E26A43EA0263A26AEC
S31508001FF45208013A43EA024373602A4B01221A66DD
S31508002004FFF768F904462B689A013FF54FAEFFF7C8
S3150800201461F9001B0228F6D981E6FFF75BF9401B34
S315080020240228D7D97BE61F4B00221A66FFF752F916
S3150800203404462B689B017FF539AEFFF74BF9001B65
S315080020440228F6D96BE6012B3FF452AE6B68E269B7
S3150800205403F4800191427FF44BAE216A03F03F02F8
S315080020648A427FF445AE616A47F6C0721A40B2EBFB
S31508002074811F7FF43DAEA26A520803F44031013A47
S31508002084B1EB024F7FF434AEE26A03F07063B3EB4C
S31508002094026F14BF0120002042E600BF0038024048
S315080020A47B27000800004742134908B58B6803F0EC
S315080020B40C03042B1CD0082B1CD14A684B684968AE
S315080020C413F4800314BF0D480D48C1F3881118BFD3
S315080020D4002302F03F02A1FB0001FEF779F8064B44
S315080020E45B68C3F3014301335B00B0FBF3F008BD3F
S315080020F40248FCE70248FAE70038024000366E0157
S315080021040024F4002DE9F0410D46044610B90120D7
S31508002114BDE8F0810368013B0E2B04D96D4840F2F3
S315080021245A21FEF7B7FF072D04D96A4840F25B2106
S31508002134FEF7B0FF684B1A6802F00702AA423DD3BD
S315080021442268960742D42368D9076CD4624B1A6866
S3150800215402F00702AA4200F29B8023685A0700F19C
S31508002164A08023681B0718D5236933F480520CD042
S3150800217423F40062B2F5A05F07D0B3F5C05F04D0BC
S31508002184544840F2CA21FEF785FF544A21699368E8
S3150800219423F4604343EAC1039360FFF785FF4F4B7B
S315080021A44F4A9B68C3F30313D35CD8404D4B18605E
S315080021B44D4B1868FFF744F80020A9E7EAB21A70ED
S315080021C41B6803F00703AB42A1D1B9E7434B12F0EE
S315080021D4040F1EBF996841F4E0519960100742BF85
S315080021E49A6842F460429A60A36833F0800212D077
S315080021F423F02002902A0ED023F04002A02A0AD007
S3150800220423F01002C02A06D0F02B04D0314840F23D
S315080022147E21FEF73FFF314AA168936823F0F00355
S315080022240B4393608FE76368032B04D9294840F26C
S315080022348521FEF72FFF6268284B012A1ED11B68E9
S3150800224413F4003F3FF463AF244EB36823F003034B
S315080022541343B360FFF73EF841F288380746B3687C
S31508002264626803F00C03B3EB820F3FF46FAFFFF71A
S3150800227431F8C01B4045F2D9032049E7911E0129CC
S315080022841B6802D813F0007FDCE713F0020FD9E7C6
S31508002294EAB21A701B6803F00703AB427FF437AF40
S315080022A45BE7E36833F480520CD023F40062B2F59A
S315080022B4A05F07D0B3F5C05F04D0064840F2C32137
S315080022C4FEF7E8FE054AE168936823F4E0530B43F6
S315080022D4936046E77B270008003C0240003802402A
S315080022E42C2900080000002008000020044B054A99
S315080022F49B68C3F38223D35C034A1068D8407047AB
S31508002304003802402429000800000020044B054A2E
S315080023149B68C3F34233D35C034A1068D8407047BA
S3150800232400380240242900080000002038B5426815
S31508002334414B9A42054604D9404840F69961FEF74E
S31508002344A9FEEB6833F4005304D03C4840F69A617E
S31508002354FEF7A0FE2B6933F4806207D0B3F5C06F8D
S3150800236404D0364840F69B61FEF794FE6B694FF637
S31508002374F372134200D123B9304840F69C61FEF744
S3150800238489FE2A68E9681369286923F440530B43CC
S315080023941361AB68D168034368690343E86921F4A8
S315080023A4164121F00C0103430B43D3605369A96911
S315080023B423F440730B435361214B9A4203D003F52C
S315080023C480639A4224D1FFF7A1FFEA691921B2F57D
S315080023D4004FD5E90043A0FB01011CD1DA184FF0E0
S315080023E4000545EB0503FDF7F3FE6422B0FBF2F1A5
S315080023F402FB1103DB003233B3FBF2F303F00702EB
S315080024045B0002EB011203F4F8731344A36038BDAE
S31508002414FFF76CFFD9E79A009B0FFDF7D9FE6422F4
S31508002424B0FBF2F102FB11031B013233B3FBF2F3E7
S3150800243403EB0113EAE700BFA037A000B32700089F
S315080024440010014010B50446002865D08169036868
S31508002454324A002954D093420CD0A2F54C429342F6
S3150800246408D002F55042934204D02D4840F2731125
S31508002474FEF710FEA36933F4407304D04FF4BA711F
S315080024842748FEF707FEA36833F4805304D024488C
S315080024944FF4BD71FEF7FEFDE36933F4004304D03F
S315080024A41F4840F27B11FEF7F5FD94F8413003F01E
S315080024B4FF0223B984F840202046FEF709FE226865
S315080024C4242384F84130D36823F40053D360204688
S315080024D4FFF72CFF23681A6922F490421A615A6995
S315080024E422F02A025A61DA6842F40052DA600020BD
S315080024F42023606484F8413084F84230606310BD58
S315080025049342C0D0074A9342BDD002F55042934243
S31508002514B9D04FF4BC71B3E70120F0E700100140CD
S31508002524B32700080044004010B5044630B30368D6
S31508002534134A93420CD0A2F54C42934208D002F5B2
S315080025445042934204D00F4840F2A621FEF7A2FD5A
S315080025542268242384F84130D36823F400532046A0
S31508002564D360FEF70DFE0020606484F8400084F80A
S31508002574410084F842002063606310BD0120FCE733
S3150800258400100140B327000810B5013902449042EF
S3150800259401D1002005E0037811F8014FA34201D0C8
S315080025A4181B10BD0130F2E702440346934200D1DA
S315080025B4704703F8011BF9E770B50D4B0D4D5B1B0E
S315080025C49C100026A64209D100F028F80A4D0B4BA8
S315080025D45B1B9C100026A64205D170BD55F8043B2A
S315080025E498470136EEE755F8043B98470136F2E773
S315080025F444290008442900084429000848290008F1
S315080026040A44914200F1FF3300D1704710B511F81E
S31508002614014B03F8014F9142F9D110BDF8B500BF3B
S31508002624F8BC08BC9E467047F8B500BFF8BC08BCA1
S309080026349E467047F9
S3150800263867E6096A85AE67BB72F36E3C3AF54FA53D
S315080026487F520E518C68059BABD9831F19CDE05B69
S31508002658000000000100000006000000010000005C
S3150800266802000000FFFFFFFF000000000000000056
S3150800267800FFFFFFFF00DEADBEEFCAFEBABE0021AF
S3150800268852411035014542002E2E2F44726976654F
S3150800269872732F53544D3332463478785F48414C19
S315080026A85F4472697665722F5372632F73746D333C
S315080026B832663478785F68616C5F636F72746578C0
S315080026C82E63002E2E2F447269766572732F535423
S315080026D84D3332463478785F48414C5F44726976A0
S315080026E865722F5372632F73746D33326634787834
S315080026F85F68616C5F666C6173682E63002E2E2FA7
S31508002708447269766572732F53544D33324634785A
S31508002718785F48414C5F4472697665722F537263D5
S315080027282F73746D3332663478785F68616C5F66C8
S315080027386C6173685F65782E63002E2E2F44726964
S31508002748766572732F53544D3332463478785F481A
S31508002758414C5F4472697665722F5372632F73749E
S315080027686D3332663478785F68616C5F6770696F55
S315080027782E63002E2E2F447269766572732F535472
S315080027884D3332463478785F48414C5F44726976EF
S3150800279865722F5372632F73746D33326634787883
S315080027A85F68616C5F7263632E63002E2E2F447216
S315080027B869766572732F53544D3332463478785F89
S315080027C848414C5F4472697665722F5372632F735A
S315080027D8746D3332663478785F68616C5F756172D8
S315080027E8742E6300982F8A4291443771CFFBC0B57F
S315080027F8A5DBB5E95BC25639F111F159A4823F92B6
S31508002808D55E1CAB98AA07D8015B8312BE8531240E
S31508002818C37D0C55745DBE72FEB1DE80A706DC9BCF
S3150800282874F19BC1C1699BE48647BEEFC69DC10F7B
S31508002838CCA10C246F2CE92DAA84744ADCA9B05CB7
S31508002848DA88F97652513E986DC631A8C82703B07A
S31508002858C77F59BFF30BE0C64791A7D55163CA0688
S3150800286867292914850AB72738211B2EFC6D2C4D94
S31508002878130D385354730A65BB0A6A762EC9C28182
S31508002888852C7292A1E8BFA24B661AA8708B4BC218
S31508002898A3516CC719E892D1240699D685350EF442
S315080028A870A06A1016C1A419086C371E4C774827F9
S315080028B8B5BCB034B30C1C394AAAD84E4FCA9C5B6F
S315080028C8F36F2E68EE828F746F63A5781478C884C0
S315080028D80802C78CFAFFBE90EB6C50A4F7A3F9BEA2
S315080028E8F27871C600400008004000000080000821
S315080028F80040000000C00008004000000000010871
S315080029080000010000000208000002000000040898
S31508002918000002000000060800000200000000008F
S31508002928010203040000000000000000010203047D
S30908002938060708096F
S30D0800293CC8D8FF7F0100000066
S30908002944B9010008BF
S3090800294895010008DF
S3150800294C0024F40001000000100000000000000044
S3150800295C000000000000000000000000010000005C
S3110800296C00000000000000000000000051
S705080011F1F0
